{
  "contractName": "PixelToken",
  "abi": [
    {
      "inputs": [],
      "stateMutability": "nonpayable",
      "type": "constructor"
    },
    {
      "anonymous": false,
      "inputs": [
        {
          "indexed": true,
          "internalType": "address",
          "name": "account",
          "type": "address"
        },
        {
          "indexed": true,
          "internalType": "address",
          "name": "operator",
          "type": "address"
        },
        {
          "indexed": false,
          "internalType": "bool",
          "name": "approved",
          "type": "bool"
        }
      ],
      "name": "ApprovalForAll",
      "type": "event"
    },
    {
      "anonymous": false,
      "inputs": [
        {
          "indexed": true,
          "internalType": "address",
          "name": "operator",
          "type": "address"
        },
        {
          "indexed": true,
          "internalType": "address",
          "name": "from",
          "type": "address"
        },
        {
          "indexed": true,
          "internalType": "address",
          "name": "to",
          "type": "address"
        },
        {
          "indexed": false,
          "internalType": "uint256[]",
          "name": "ids",
          "type": "uint256[]"
        },
        {
          "indexed": false,
          "internalType": "uint256[]",
          "name": "values",
          "type": "uint256[]"
        }
      ],
      "name": "TransferBatch",
      "type": "event"
    },
    {
      "anonymous": false,
      "inputs": [
        {
          "indexed": true,
          "internalType": "address",
          "name": "operator",
          "type": "address"
        },
        {
          "indexed": true,
          "internalType": "address",
          "name": "from",
          "type": "address"
        },
        {
          "indexed": true,
          "internalType": "address",
          "name": "to",
          "type": "address"
        },
        {
          "indexed": false,
          "internalType": "uint256",
          "name": "id",
          "type": "uint256"
        },
        {
          "indexed": false,
          "internalType": "uint256",
          "name": "value",
          "type": "uint256"
        }
      ],
      "name": "TransferSingle",
      "type": "event"
    },
    {
      "anonymous": false,
      "inputs": [
        {
          "indexed": false,
          "internalType": "string",
          "name": "value",
          "type": "string"
        },
        {
          "indexed": true,
          "internalType": "uint256",
          "name": "id",
          "type": "uint256"
        }
      ],
      "name": "URI",
      "type": "event"
    },
    {
      "inputs": [
        {
          "internalType": "address",
          "name": "account",
          "type": "address"
        },
        {
          "internalType": "uint256",
          "name": "id",
          "type": "uint256"
        }
      ],
      "name": "balanceOf",
      "outputs": [
        {
          "internalType": "uint256",
          "name": "",
          "type": "uint256"
        }
      ],
      "stateMutability": "view",
      "type": "function"
    },
    {
      "inputs": [
        {
          "internalType": "address[]",
          "name": "accounts",
          "type": "address[]"
        },
        {
          "internalType": "uint256[]",
          "name": "ids",
          "type": "uint256[]"
        }
      ],
      "name": "balanceOfBatch",
      "outputs": [
        {
          "internalType": "uint256[]",
          "name": "",
          "type": "uint256[]"
        }
      ],
      "stateMutability": "view",
      "type": "function"
    },
    {
      "inputs": [
        {
          "internalType": "uint256",
          "name": "",
          "type": "uint256"
        }
      ],
      "name": "creators",
      "outputs": [
        {
          "internalType": "uint256",
          "name": "id",
          "type": "uint256"
        },
        {
          "internalType": "address",
          "name": "owner",
          "type": "address"
        }
      ],
      "stateMutability": "view",
      "type": "function"
    },
    {
      "inputs": [
        {
          "internalType": "address",
          "name": "account",
          "type": "address"
        },
        {
          "internalType": "address",
          "name": "operator",
          "type": "address"
        }
      ],
      "name": "isApprovedForAll",
      "outputs": [
        {
          "internalType": "bool",
          "name": "",
          "type": "bool"
        }
      ],
      "stateMutability": "view",
      "type": "function"
    },
    {
      "inputs": [],
      "name": "name",
      "outputs": [
        {
          "internalType": "string",
          "name": "",
          "type": "string"
        }
      ],
      "stateMutability": "view",
      "type": "function"
    },
    {
      "inputs": [
        {
          "internalType": "address",
          "name": "from",
          "type": "address"
        },
        {
          "internalType": "address",
          "name": "to",
          "type": "address"
        },
        {
          "internalType": "uint256[]",
          "name": "ids",
          "type": "uint256[]"
        },
        {
          "internalType": "uint256[]",
          "name": "amounts",
          "type": "uint256[]"
        },
        {
          "internalType": "bytes",
          "name": "data",
          "type": "bytes"
        }
      ],
      "name": "safeBatchTransferFrom",
      "outputs": [],
      "stateMutability": "nonpayable",
      "type": "function"
    },
    {
      "inputs": [
        {
          "internalType": "address",
          "name": "from",
          "type": "address"
        },
        {
          "internalType": "address",
          "name": "to",
          "type": "address"
        },
        {
          "internalType": "uint256",
          "name": "id",
          "type": "uint256"
        },
        {
          "internalType": "uint256",
          "name": "amount",
          "type": "uint256"
        },
        {
          "internalType": "bytes",
          "name": "data",
          "type": "bytes"
        }
      ],
      "name": "safeTransferFrom",
      "outputs": [],
      "stateMutability": "nonpayable",
      "type": "function"
    },
    {
      "inputs": [
        {
          "internalType": "address",
          "name": "operator",
          "type": "address"
        },
        {
          "internalType": "bool",
          "name": "approved",
          "type": "bool"
        }
      ],
      "name": "setApprovalForAll",
      "outputs": [],
      "stateMutability": "nonpayable",
      "type": "function"
    },
    {
      "inputs": [
        {
          "internalType": "bytes4",
          "name": "interfaceId",
          "type": "bytes4"
        }
      ],
      "name": "supportsInterface",
      "outputs": [
        {
          "internalType": "bool",
          "name": "",
          "type": "bool"
        }
      ],
      "stateMutability": "view",
      "type": "function"
    },
    {
      "inputs": [],
      "name": "symbol",
      "outputs": [
        {
          "internalType": "string",
          "name": "",
          "type": "string"
        }
      ],
      "stateMutability": "view",
      "type": "function"
    },
    {
      "inputs": [
        {
          "internalType": "uint256",
          "name": "",
          "type": "uint256"
        }
      ],
      "name": "uri",
      "outputs": [
        {
          "internalType": "string",
          "name": "",
          "type": "string"
        }
      ],
      "stateMutability": "view",
      "type": "function"
    },
    {
      "inputs": [
        {
          "internalType": "address payable",
          "name": "_owner",
          "type": "address"
        }
      ],
      "name": "changeOwner",
      "outputs": [],
      "stateMutability": "nonpayable",
      "type": "function"
    },
    {
      "inputs": [
        {
          "internalType": "uint256",
          "name": "_amount",
          "type": "uint256"
        }
      ],
      "name": "changeFee",
      "outputs": [],
      "stateMutability": "nonpayable",
      "type": "function"
    },
    {
      "inputs": [
        {
          "components": [
            {
              "internalType": "bytes32",
              "name": "id",
              "type": "bytes32"
            },
            {
              "internalType": "string",
              "name": "hexColor",
              "type": "string"
            },
            {
              "internalType": "uint256",
              "name": "x",
              "type": "uint256"
            },
            {
              "internalType": "uint256",
              "name": "y",
              "type": "uint256"
            }
          ],
          "internalType": "struct PixelToken.Pixel[]",
          "name": "_pixels",
          "type": "tuple[]"
        }
      ],
      "name": "create",
      "outputs": [],
      "stateMutability": "payable",
      "type": "function"
    }
  ],
  "bytecode": "0x608060405260006007553480156200001657600080fd5b506040518060600160405280603c81526020016200363b603c9139620000496301ffc9a760e01b6200018260201b60201c565b6200005a816200025a60201b60201c565b6200007263d9b67a2660e01b6200018260201b60201c565b6200008a630e89341c60e01b6200018260201b60201c565b506040518060400160405280600a81526020017f506978656c546f6b656e0000000000000000000000000000000000000000000081525060099080519060200190620000d892919062000276565b506040518060400160405280600381526020017f5058540000000000000000000000000000000000000000000000000000000000815250600a90805190602001906200012692919062000276565b507316fb96a5fa0427af0c8f7cf1eb4870231c8154b6600460006101000a81548173ffffffffffffffffffffffffffffffffffffffff021916908373ffffffffffffffffffffffffffffffffffffffff1602179055506200039a565b63ffffffff60e01b817bffffffffffffffffffffffffffffffffffffffffffffffffffffffff19161415620001ee576040517f08c379a0000000000000000000000000000000000000000000000000000000008152600401620001e59062000367565b60405180910390fd5b6001600080837bffffffffffffffffffffffffffffffffffffffffffffffffffffffff19167bffffffffffffffffffffffffffffffffffffffffffffffffffffffff1916815260200190815260200160002060006101000a81548160ff02191690831515021790555050565b80600390805190602001906200027292919062000276565b5050565b828054600181600116156101000203166002900490600052602060002090601f016020900481019282601f10620002b957805160ff1916838001178555620002ea565b82800160010185558215620002ea579182015b82811115620002e9578251825591602001919060010190620002cc565b5b509050620002f99190620002fd565b5090565b6200032291905b808211156200031e57600081600090555060010162000304565b5090565b90565b600062000334601c8362000389565b91507f4552433136353a20696e76616c696420696e74657266616365206964000000006000830152602082019050919050565b60006020820190508181036000830152620003828162000325565b9050919050565b600082825260208201905092915050565b61329180620003aa6000396000f3fe6080604052600436106100dc5760003560e01c806395d89b411161007f578063cd53d08e11610059578063cd53d08e146102cf578063ddf4190a1461030d578063e985e9c514610329578063f242432a14610366576100dc565b806395d89b4114610252578063a22cb4651461027d578063a6f9dae1146102a6576100dc565b80630e89341c116100bb5780630e89341c146101865780632eb2c2d6146101c35780634e1273f4146101ec5780636a1db1bf14610229576100dc565b8062fdd58e146100e157806301ffc9a71461011e57806306fdde031461015b575b600080fd5b3480156100ed57600080fd5b506101086004803603610103919081019061237e565b61038f565b6040516101159190612ec9565b60405180910390f35b34801561012a57600080fd5b5061014560048036036101409190810190612490565b610459565b6040516101529190612cca565b60405180910390f35b34801561016757600080fd5b506101706104c0565b60405161017d9190612ce5565b60405180910390f35b34801561019257600080fd5b506101ad60048036036101a891908101906124e2565b61055e565b6040516101ba9190612d07565b60405180910390f35b3480156101cf57600080fd5b506101ea60048036036101e591908101906121f4565b610602565b005b3480156101f857600080fd5b50610213600480360361020e91908101906123ba565b6109c6565b6040516102209190612c71565b60405180910390f35b34801561023557600080fd5b50610250600480360361024b91908101906124e2565b610aae565b005b34801561025e57600080fd5b50610267610b48565b6040516102749190612ce5565b60405180910390f35b34801561028957600080fd5b506102a4600480360361029f9190810190612342565b610be6565b005b3480156102b257600080fd5b506102cd60048036036102c8919081019061218f565b610d67565b005b3480156102db57600080fd5b506102f660048036036102f191908101906124e2565b610e3b565b604051610304929190612ee4565b60405180910390f35b61032760048036036103229190810190612426565b610e7f565b005b34801561033557600080fd5b50610350600480360361034b91908101906121b8565b6110d8565b60405161035d9190612cca565b60405180910390f35b34801561037257600080fd5b5061038d600480360361038891908101906122b3565b61116c565b005b60008073ffffffffffffffffffffffffffffffffffffffff168373ffffffffffffffffffffffffffffffffffffffff161415610400576040517f08c379a00000000000000000000000000000000000000000000000000000000081526004016103f790612d89565b60405180910390fd5b6001600083815260200190815260200160002060008473ffffffffffffffffffffffffffffffffffffffff1673ffffffffffffffffffffffffffffffffffffffff16815260200190815260200160002054905092915050565b6000806000837bffffffffffffffffffffffffffffffffffffffffffffffffffffffff19167bffffffffffffffffffffffffffffffffffffffffffffffffffffffff1916815260200190815260200160002060009054906101000a900460ff169050919050565b60098054600181600116156101000203166002900480601f0160208091040260200160405190810160405280929190818152602001828054600181600116156101000203166002900480156105565780601f1061052b57610100808354040283529160200191610556565b820191906000526020600020905b81548152906001019060200180831161053957829003601f168201915b505050505081565b606060038054600181600116156101000203166002900480601f0160208091040260200160405190810160405280929190818152602001828054600181600116156101000203166002900480156105f65780601f106105cb576101008083540402835291602001916105f6565b820191906000526020600020905b8154815290600101906020018083116105d957829003601f168201915b50505050509050919050565b8151835114610646576040517f08c379a000000000000000000000000000000000000000000000000000000000815260040161063d90612e89565b60405180910390fd5b600073ffffffffffffffffffffffffffffffffffffffff168473ffffffffffffffffffffffffffffffffffffffff1614156106b6576040517f08c379a00000000000000000000000000000000000000000000000000000000081526004016106ad90612e09565b60405180910390fd5b6106be6114af565b73ffffffffffffffffffffffffffffffffffffffff168573ffffffffffffffffffffffffffffffffffffffff1614806107045750610703856106fe6114af565b6110d8565b5b610743576040517f08c379a000000000000000000000000000000000000000000000000000000000815260040161073a90612e29565b60405180910390fd5b600061074d6114af565b905061075d8187878787876114b7565b60008090505b845181101561093157600085828151811061077a57fe5b60200260200101519050600085838151811061079257fe5b60200260200101519050610819816040518060600160405280602a8152602001613232602a91396001600086815260200190815260200160002060008d73ffffffffffffffffffffffffffffffffffffffff1673ffffffffffffffffffffffffffffffffffffffff168152602001908152602001600020546114bf9092919063ffffffff16565b6001600084815260200190815260200160002060008b73ffffffffffffffffffffffffffffffffffffffff1673ffffffffffffffffffffffffffffffffffffffff168152602001908152602001600020819055506108d0816001600085815260200190815260200160002060008b73ffffffffffffffffffffffffffffffffffffffff1673ffffffffffffffffffffffffffffffffffffffff1681526020019081526020016000205461151490919063ffffffff16565b6001600084815260200190815260200160002060008a73ffffffffffffffffffffffffffffffffffffffff1673ffffffffffffffffffffffffffffffffffffffff168152602001908152602001600020819055505050806001019050610763565b508473ffffffffffffffffffffffffffffffffffffffff168673ffffffffffffffffffffffffffffffffffffffff168273ffffffffffffffffffffffffffffffffffffffff167f4a39dc06d4c0dbc64b70af90fd698a233a518aa5d07e595d983b8c0526c8f7fb87876040516109a8929190612c93565b60405180910390a46109be818787878787611569565b505050505050565b60608151835114610a0c576040517f08c379a0000000000000000000000000000000000000000000000000000000008152600401610a0390612e69565b60405180910390fd5b60608351604051908082528060200260200182016040528015610a3e5781602001602082028038833980820191505090505b50905060008090505b8451811015610aa357610a80858281518110610a5f57fe5b6020026020010151858381518110610a7357fe5b602002602001015161038f565b828281518110610a8c57fe5b602002602001018181525050806001019050610a47565b508091505092915050565b600460009054906101000a900473ffffffffffffffffffffffffffffffffffffffff1673ffffffffffffffffffffffffffffffffffffffff163373ffffffffffffffffffffffffffffffffffffffff1614610b3e576040517f08c379a0000000000000000000000000000000000000000000000000000000008152600401610b3590612d69565b60405180910390fd5b8060058190555050565b600a8054600181600116156101000203166002900480601f016020809104026020016040519081016040528092919081815260200182805460018160011615610100020316600290048015610bde5780601f10610bb357610100808354040283529160200191610bde565b820191906000526020600020905b815481529060010190602001808311610bc157829003601f168201915b505050505081565b8173ffffffffffffffffffffffffffffffffffffffff16610c056114af565b73ffffffffffffffffffffffffffffffffffffffff161415610c5c576040517f08c379a0000000000000000000000000000000000000000000000000000000008152600401610c5390612e49565b60405180910390fd5b8060026000610c696114af565b73ffffffffffffffffffffffffffffffffffffffff1673ffffffffffffffffffffffffffffffffffffffff16815260200190815260200160002060008473ffffffffffffffffffffffffffffffffffffffff1673ffffffffffffffffffffffffffffffffffffffff16815260200190815260200160002060006101000a81548160ff0219169083151502179055508173ffffffffffffffffffffffffffffffffffffffff16610d166114af565b73ffffffffffffffffffffffffffffffffffffffff167f17307eab39ab6107e8899845ad3d59bd9653f200f220920489ca2b5937696c3183604051610d5b9190612cca565b60405180910390a35050565b600460009054906101000a900473ffffffffffffffffffffffffffffffffffffffff1673ffffffffffffffffffffffffffffffffffffffff163373ffffffffffffffffffffffffffffffffffffffff1614610df7576040517f08c379a0000000000000000000000000000000000000000000000000000000008152600401610dee90612d69565b60405180910390fd5b80600460006101000a81548173ffffffffffffffffffffffffffffffffffffffff021916908373ffffffffffffffffffffffffffffffffffffffff16021790555050565b60086020528060005260406000206000915090508060000154908060010160009054906101000a900473ffffffffffffffffffffffffffffffffffffffff16905082565b343373ffffffffffffffffffffffffffffffffffffffff16311015610ed9576040517f08c379a0000000000000000000000000000000000000000000000000000000008152600401610ed090612dc9565b60405180910390fd5b610ee1611d65565b604051806060016040528060075481526020013373ffffffffffffffffffffffffffffffffffffffff1681526020018351604051908082528060200260200182016040528015610f405781602001602082028038833980820191505090505b50815250905060008090505b8251811015610fbd57610f5d611d9c565b838281518110610f6957fe5b60200260200101519050610f85816040015182606001516117f6565b816000018181525050806000015183604001518381518110610fa357fe5b602002602001018181525050508080600101915050610f4c565b50806008600060075481526020019081526020016000206000820151816000015560208201518160010160006101000a81548173ffffffffffffffffffffffffffffffffffffffff021916908373ffffffffffffffffffffffffffffffffffffffff1602179055506040820151816002019080519060200190611041929190611dc7565b50905050600460009054906101000a900473ffffffffffffffffffffffffffffffffffffffff1673ffffffffffffffffffffffffffffffffffffffff166108fc349081150290604051600060405180830381858888f193505050501580156110ad573d6000803e3d6000fd5b506110cc33600754600160405180602001604052806000815250611871565b6110d4611a58565b5050565b6000600260008473ffffffffffffffffffffffffffffffffffffffff1673ffffffffffffffffffffffffffffffffffffffff16815260200190815260200160002060008373ffffffffffffffffffffffffffffffffffffffff1673ffffffffffffffffffffffffffffffffffffffff16815260200190815260200160002060009054906101000a900460ff16905092915050565b600073ffffffffffffffffffffffffffffffffffffffff168473ffffffffffffffffffffffffffffffffffffffff1614156111dc576040517f08c379a00000000000000000000000000000000000000000000000000000000081526004016111d390612e09565b60405180910390fd5b6111e46114af565b73ffffffffffffffffffffffffffffffffffffffff168573ffffffffffffffffffffffffffffffffffffffff16148061122a5750611229856112246114af565b6110d8565b5b611269576040517f08c379a000000000000000000000000000000000000000000000000000000000815260040161126090612de9565b60405180910390fd5b60006112736114af565b905061129381878761128488611a6c565b61128d88611a6c565b876114b7565b611310836040518060600160405280602a8152602001613232602a91396001600088815260200190815260200160002060008a73ffffffffffffffffffffffffffffffffffffffff1673ffffffffffffffffffffffffffffffffffffffff168152602001908152602001600020546114bf9092919063ffffffff16565b6001600086815260200190815260200160002060008873ffffffffffffffffffffffffffffffffffffffff1673ffffffffffffffffffffffffffffffffffffffff168152602001908152602001600020819055506113c7836001600087815260200190815260200160002060008873ffffffffffffffffffffffffffffffffffffffff1673ffffffffffffffffffffffffffffffffffffffff1681526020019081526020016000205461151490919063ffffffff16565b6001600086815260200190815260200160002060008773ffffffffffffffffffffffffffffffffffffffff1673ffffffffffffffffffffffffffffffffffffffff168152602001908152602001600020819055508473ffffffffffffffffffffffffffffffffffffffff168673ffffffffffffffffffffffffffffffffffffffff168273ffffffffffffffffffffffffffffffffffffffff167fc3d58168c5ae7397731d063d5bbf3d657854427343f4c083240f7aacaa2d0f628787604051611491929190612f0d565b60405180910390a46114a7818787878787611ac5565b505050505050565b600033905090565b505050505050565b6000838311158290611507576040517f08c379a00000000000000000000000000000000000000000000000000000000081526004016114fe9190612d07565b60405180910390fd5b5082840390509392505050565b60008082840190508381101561155f576040517f08c379a000000000000000000000000000000000000000000000000000000000815260040161155690612da9565b60405180910390fd5b8091505092915050565b6115888473ffffffffffffffffffffffffffffffffffffffff16611d52565b156117ee578373ffffffffffffffffffffffffffffffffffffffff1663bc197c8187878686866040518663ffffffff1660e01b81526004016115ce959493929190612baf565b602060405180830381600087803b1580156115e857600080fd5b505af192505050801561161957506040513d601f19601f8201168201806040525061161691908101906124b9565b60015b6117655760006040519050600081526001156116e25760443d101561164157600090506116e2565b60046000803e60005160e01c6308c379a081146116625760009150506116e2565b60043d036004833e81513d602482011167ffffffffffffffff8211171561168e576000925050506116e2565b808301805167ffffffffffffffff8111156116b05760009450505050506116e2565b8060208301013d86018111156116ce576000955050505050506116e2565b601f19601f82011660405282955050505050505b806116ed575061172a565b806040517f08c379a00000000000000000000000000000000000000000000000000000000081526004016117219190612d07565b60405180910390fd5b6040517f08c379a000000000000000000000000000000000000000000000000000000000815260040161175c90612d29565b60405180910390fd5b63bc197c8160e01b7bffffffffffffffffffffffffffffffffffffffffffffffffffffffff1916817bffffffffffffffffffffffffffffffffffffffffffffffffffffffff1916146117ec576040517f08c379a00000000000000000000000000000000000000000000000000000000081526004016117e390612d49565b60405180910390fd5b505b505050505050565b60006002838360405160200161180d929190612b83565b6040516020818303038152906040526040516118299190612b6c565b602060405180830381855afa158015611846573d6000803e3d6000fd5b5050506040513d601f19601f820116820180604052506118699190810190612467565b905092915050565b600073ffffffffffffffffffffffffffffffffffffffff168473ffffffffffffffffffffffffffffffffffffffff1614156118e1576040517f08c379a00000000000000000000000000000000000000000000000000000000081526004016118d890612ea9565b60405180910390fd5b60006118eb6114af565b905061190c816000876118fd88611a6c565b61190688611a6c565b876114b7565b61196f836001600087815260200190815260200160002060008873ffffffffffffffffffffffffffffffffffffffff1673ffffffffffffffffffffffffffffffffffffffff1681526020019081526020016000205461151490919063ffffffff16565b6001600086815260200190815260200160002060008773ffffffffffffffffffffffffffffffffffffffff1673ffffffffffffffffffffffffffffffffffffffff168152602001908152602001600020819055508473ffffffffffffffffffffffffffffffffffffffff16600073ffffffffffffffffffffffffffffffffffffffff168273ffffffffffffffffffffffffffffffffffffffff167fc3d58168c5ae7397731d063d5bbf3d657854427343f4c083240f7aacaa2d0f628787604051611a3a929190612f0d565b60405180910390a4611a5181600087878787611ac5565b5050505050565b600760008154809291906001019190505550565b6060806001604051908082528060200260200182016040528015611a9f5781602001602082028038833980820191505090505b5090508281600081518110611ab057fe5b60200260200101818152505080915050919050565b611ae48473ffffffffffffffffffffffffffffffffffffffff16611d52565b15611d4a578373ffffffffffffffffffffffffffffffffffffffff1663f23a6e6187878686866040518663ffffffff1660e01b8152600401611b2a959493929190612c17565b602060405180830381600087803b158015611b4457600080fd5b505af1925050508015611b7557506040513d601f19601f82011682018060405250611b7291908101906124b9565b60015b611cc1576000604051905060008152600115611c3e5760443d1015611b9d5760009050611c3e565b60046000803e60005160e01c6308c379a08114611bbe576000915050611c3e565b60043d036004833e81513d602482011167ffffffffffffffff82111715611bea57600092505050611c3e565b808301805167ffffffffffffffff811115611c0c576000945050505050611c3e565b8060208301013d8601811115611c2a57600095505050505050611c3e565b601f19601f82011660405282955050505050505b80611c495750611c86565b806040517f08c379a0000000000000000000000000000000000000000000000000000000008152600401611c7d9190612d07565b60405180910390fd5b6040517f08c379a0000000000000000000000000000000000000000000000000000000008152600401611cb890612d29565b60405180910390fd5b63f23a6e6160e01b7bffffffffffffffffffffffffffffffffffffffffffffffffffffffff1916817bffffffffffffffffffffffffffffffffffffffffffffffffffffffff191614611d48576040517f08c379a0000000000000000000000000000000000000000000000000000000008152600401611d3f90612d49565b60405180910390fd5b505b505050505050565b600080823b905060008111915050919050565b604051806060016040528060008152602001600073ffffffffffffffffffffffffffffffffffffffff168152602001606081525090565b6040518060800160405280600080191681526020016060815260200160008152602001600081525090565b828054828255906000526020600020908101928215611e03579160200282015b82811115611e02578251825591602001919060010190611de7565b5b509050611e109190611e14565b5090565b611e3691905b80821115611e32576000816000905550600101611e1a565b5090565b90565b600081359050611e48816131a7565b92915050565b600081359050611e5d816131be565b92915050565b600082601f830112611e7457600080fd5b8135611e87611e8282612f63565b612f36565b91508181835260208401935060208101905083856020840282011115611eac57600080fd5b60005b83811015611edc5781611ec28882611e39565b845260208401935060208301925050600181019050611eaf565b5050505092915050565b600082601f830112611ef757600080fd5b8135611f0a611f0582612f8b565b612f36565b9150818183526020840193506020810190508360005b83811015611f505781358601611f3688826120ee565b845260208401935060208301925050600181019050611f20565b5050505092915050565b600082601f830112611f6b57600080fd5b8135611f7e611f7982612fb3565b612f36565b91508181835260208401935060208101905083856020840282011115611fa357600080fd5b60005b83811015611fd35781611fb9888261217a565b845260208401935060208301925050600181019050611fa6565b5050505092915050565b600081359050611fec816131d5565b92915050565b600081359050612001816131ec565b92915050565b600081519050612016816131ec565b92915050565b60008135905061202b81613203565b92915050565b60008151905061204081613203565b92915050565b600082601f83011261205757600080fd5b813561206a61206582612fdb565b612f36565b9150808252602083016020830185838301111561208657600080fd5b61209183828461314a565b50505092915050565b600082601f8301126120ab57600080fd5b81356120be6120b982613007565b612f36565b915080825260208301602083018583830111156120da57600080fd5b6120e583828461314a565b50505092915050565b60006080828403121561210057600080fd5b61210a6080612f36565b9050600061211a84828501611ff2565b600083015250602082013567ffffffffffffffff81111561213a57600080fd5b6121468482850161209a565b602083015250604061215a8482850161217a565b604083015250606061216e8482850161217a565b60608301525092915050565b6000813590506121898161321a565b92915050565b6000602082840312156121a157600080fd5b60006121af84828501611e4e565b91505092915050565b600080604083850312156121cb57600080fd5b60006121d985828601611e39565b92505060206121ea85828601611e39565b9150509250929050565b600080600080600060a0868803121561220c57600080fd5b600061221a88828901611e39565b955050602061222b88828901611e39565b945050604086013567ffffffffffffffff81111561224857600080fd5b61225488828901611f5a565b935050606086013567ffffffffffffffff81111561227157600080fd5b61227d88828901611f5a565b925050608086013567ffffffffffffffff81111561229a57600080fd5b6122a688828901612046565b9150509295509295909350565b600080600080600060a086880312156122cb57600080fd5b60006122d988828901611e39565b95505060206122ea88828901611e39565b94505060406122fb8882890161217a565b935050606061230c8882890161217a565b925050608086013567ffffffffffffffff81111561232957600080fd5b61233588828901612046565b9150509295509295909350565b6000806040838503121561235557600080fd5b600061236385828601611e39565b925050602061237485828601611fdd565b9150509250929050565b6000806040838503121561239157600080fd5b600061239f85828601611e39565b92505060206123b08582860161217a565b9150509250929050565b600080604083850312156123cd57600080fd5b600083013567ffffffffffffffff8111156123e757600080fd5b6123f385828601611e63565b925050602083013567ffffffffffffffff81111561241057600080fd5b61241c85828601611f5a565b9150509250929050565b60006020828403121561243857600080fd5b600082013567ffffffffffffffff81111561245257600080fd5b61245e84828501611ee6565b91505092915050565b60006020828403121561247957600080fd5b600061248784828501612007565b91505092915050565b6000602082840312156124a257600080fd5b60006124b08482850161201c565b91505092915050565b6000602082840312156124cb57600080fd5b60006124d984828501612031565b91505092915050565b6000602082840312156124f457600080fd5b60006125028482850161217a565b91505092915050565b60006125178383612b37565b60208301905092915050565b61252c816130ba565b82525050565b600061253d82613043565b612547818561307c565b935061255283613033565b8060005b8381101561258357815161256a888261250b565b97506125758361306f565b925050600181019050612556565b5085935050505092915050565b612599816130de565b82525050565b60006125aa8261304e565b6125b4818561308d565b93506125c4818560208601613159565b6125cd81613196565b840191505092915050565b60006125e38261304e565b6125ed818561309e565b93506125fd818560208601613159565b80840191505092915050565b600061261482613064565b61261e81856130a9565b935061262e818560208601613159565b61263781613196565b840191505092915050565b600061264d82613059565b61265781856130a9565b9350612667818560208601613159565b61267081613196565b840191505092915050565b60006126886034836130a9565b91507f455243313135353a207472616e7366657220746f206e6f6e204552433131353560008301527f526563656976657220696d706c656d656e7465720000000000000000000000006020830152604082019050919050565b60006126ee6028836130a9565b91507f455243313135353a204552433131353552656365697665722072656a6563746560008301527f6420746f6b656e730000000000000000000000000000000000000000000000006020830152604082019050919050565b6000612754600a836130a9565b91507f4f776e6572204f6e6c79000000000000000000000000000000000000000000006000830152602082019050919050565b6000612794602b836130a9565b91507f455243313135353a2062616c616e636520717565727920666f7220746865207a60008301527f65726f20616464726573730000000000000000000000000000000000000000006020830152604082019050919050565b60006127fa601b836130a9565b91507f536166654d6174683a206164646974696f6e206f766572666c6f7700000000006000830152602082019050919050565b600061283a6010836130a9565b91507f4e6f7420656e6f7567682066756e6473000000000000000000000000000000006000830152602082019050919050565b600061287a6029836130a9565b91507f455243313135353a2063616c6c6572206973206e6f74206f776e6572206e6f7260008301527f20617070726f76656400000000000000000000000000000000000000000000006020830152604082019050919050565b60006128e06025836130a9565b91507f455243313135353a207472616e7366657220746f20746865207a65726f20616460008301527f64726573730000000000000000000000000000000000000000000000000000006020830152604082019050919050565b60006129466032836130a9565b91507f455243313135353a207472616e736665722063616c6c6572206973206e6f742060008301527f6f776e6572206e6f7220617070726f76656400000000000000000000000000006020830152604082019050919050565b60006129ac6029836130a9565b91507f455243313135353a2073657474696e6720617070726f76616c2073746174757360008301527f20666f722073656c6600000000000000000000000000000000000000000000006020830152604082019050919050565b6000612a126029836130a9565b91507f455243313135353a206163636f756e747320616e6420696473206c656e67746860008301527f206d69736d6174636800000000000000000000000000000000000000000000006020830152604082019050919050565b6000612a786028836130a9565b91507f455243313135353a2069647320616e6420616d6f756e7473206c656e6774682060008301527f6d69736d617463680000000000000000000000000000000000000000000000006020830152604082019050919050565b6000612ade6021836130a9565b91507f455243313135353a206d696e7420746f20746865207a65726f2061646472657360008301527f73000000000000000000000000000000000000000000000000000000000000006020830152604082019050919050565b612b4081613140565b82525050565b612b4f81613140565b82525050565b612b66612b6182613140565b61318c565b82525050565b6000612b7882846125d8565b915081905092915050565b6000612b8f8285612b55565b602082019150612b9f8284612b55565b6020820191508190509392505050565b600060a082019050612bc46000830188612523565b612bd16020830187612523565b8181036040830152612be38186612532565b90508181036060830152612bf78185612532565b90508181036080830152612c0b818461259f565b90509695505050505050565b600060a082019050612c2c6000830188612523565b612c396020830187612523565b612c466040830186612b46565b612c536060830185612b46565b8181036080830152612c65818461259f565b90509695505050505050565b60006020820190508181036000830152612c8b8184612532565b905092915050565b60006040820190508181036000830152612cad8185612532565b90508181036020830152612cc18184612532565b90509392505050565b6000602082019050612cdf6000830184612590565b92915050565b60006020820190508181036000830152612cff8184612642565b905092915050565b60006020820190508181036000830152612d218184612609565b905092915050565b60006020820190508181036000830152612d428161267b565b9050919050565b60006020820190508181036000830152612d62816126e1565b9050919050565b60006020820190508181036000830152612d8281612747565b9050919050565b60006020820190508181036000830152612da281612787565b9050919050565b60006020820190508181036000830152612dc2816127ed565b9050919050565b60006020820190508181036000830152612de28161282d565b9050919050565b60006020820190508181036000830152612e028161286d565b9050919050565b60006020820190508181036000830152612e22816128d3565b9050919050565b60006020820190508181036000830152612e4281612939565b9050919050565b60006020820190508181036000830152612e628161299f565b9050919050565b60006020820190508181036000830152612e8281612a05565b9050919050565b60006020820190508181036000830152612ea281612a6b565b9050919050565b60006020820190508181036000830152612ec281612ad1565b9050919050565b6000602082019050612ede6000830184612b46565b92915050565b6000604082019050612ef96000830185612b46565b612f066020830184612523565b9392505050565b6000604082019050612f226000830185612b46565b612f2f6020830184612b46565b9392505050565b6000604051905081810181811067ffffffffffffffff82111715612f5957600080fd5b8060405250919050565b600067ffffffffffffffff821115612f7a57600080fd5b602082029050602081019050919050565b600067ffffffffffffffff821115612fa257600080fd5b602082029050602081019050919050565b600067ffffffffffffffff821115612fca57600080fd5b602082029050602081019050919050565b600067ffffffffffffffff821115612ff257600080fd5b601f19601f8301169050602081019050919050565b600067ffffffffffffffff82111561301e57600080fd5b601f19601f8301169050602081019050919050565b6000819050602082019050919050565b600081519050919050565b600081519050919050565b600081519050919050565b600081519050919050565b6000602082019050919050565b600082825260208201905092915050565b600082825260208201905092915050565b600081905092915050565b600082825260208201905092915050565b60006130c582613120565b9050919050565b60006130d782613120565b9050919050565b60008115159050919050565b6000819050919050565b60007fffffffff0000000000000000000000000000000000000000000000000000000082169050919050565b600073ffffffffffffffffffffffffffffffffffffffff82169050919050565b6000819050919050565b82818337600083830152505050565b60005b8381101561317757808201518184015260208101905061315c565b83811115613186576000848401525b50505050565b6000819050919050565b6000601f19601f8301169050919050565b6131b0816130ba565b81146131bb57600080fd5b50565b6131c7816130cc565b81146131d257600080fd5b50565b6131de816130de565b81146131e957600080fd5b50565b6131f5816130ea565b811461320057600080fd5b50565b61320c816130f4565b811461321757600080fd5b50565b61322381613140565b811461322e57600080fd5b5056fe455243313135353a20696e73756666696369656e742062616c616e636520666f72207472616e73666572a264697066735822122085a8e12a93b3f996affecf2551de538a751852cfb7c4909b6510737460b09b5364736f6c6343000602003368747470733a2f2f6769746875622e636f6d2f6d61747472756464792f444150502f626c6f622f6d61737465722f6974656d2f7b69647d2e6a736f6e",
  "source": "pragma solidity 0.6.2;\npragma experimental ABIEncoderV2;\n\nimport \"@openzeppelin/contracts/token/ERC1155/ERC1155.sol\";\n\ncontract PixelToken is ERC1155 {\n\n    address payable owner;\n    uint256 transactionFee;\n\n    struct Creator {\n        uint256 id;\n        address owner;\n        bytes32[] pixelIds;\n    }\n\n    struct Pixel {\n        bytes32 id;\n        string hexColor;\n        uint256 x;\n        uint256 y;\n    }\n\n    Pixel[] pixels;\n\n    uint256 private _currentTokenID = 0;\n    mapping (uint256 => Creator) public creators;\n\n\n    // Contract name\n    string public name;\n    // Contract symbol\n    string public symbol;\n\n    modifier creatorOnly(uint256 _id) {\n        require(creators[_id].owner == msg.sender, \"Creator Only\");\n        _;\n    }\n\n    modifier isOwner() {\n        require(msg.sender == owner, \"Owner Only\");\n        _;\n    }\n\n    constructor() public ERC1155(\"https://github.com/mattruddy/DAPP/blob/master/item/{id}.json\") {\n        name = \"PixelToken\";\n        symbol = \"PXT\";\n        owner = 0x16Fb96a5fa0427Af0C8F7cF1eB4870231c8154B6;\n    }\n\n    // Admin\n    function changeOwner(address payable _owner) public isOwner {\n        owner = _owner;\n    }\n\n    function changeFee(uint256 _amount) public isOwner {\n        transactionFee = _amount;\n    }\n\n    // Public\n    function create(Pixel[] memory _pixels) public payable {\n        //require(msg.value == transactionFee, 'Value is not enough');\n       // require(x >= 0 && x <= maxX, \"X must be between 0 and 7000\");\n       // require(y >= 0 && y <= maxY, \"Y must be between 0 and 4000\");\n        require(msg.sender.balance >= msg.value, \"Not enough funds\");\n\n        Creator memory creator = Creator({\n            id: _currentTokenID,\n            owner: msg.sender,\n            pixelIds: new bytes32[](_pixels.length)\n        });\n\n        for (uint256 i = 0; i < _pixels.length; i++) {\n            Pixel memory p = _pixels[i];\n            p.id = getHashFromCords(p.x, p.y);\n            creator.pixelIds[i] = p.id;\n        }\n\n        creators[_currentTokenID] = creator;\n        // for (uint256 i = 0; i < _pixels.length; i++) {\n\n        //     creator.pixels[i] = _pixels[i];\n        // }\n\n        // creators[_currentTokenID] = blk;\n        owner.transfer(msg.value);\n        _mint(msg.sender, _currentTokenID, 1, \"\");\n        _incrementTokenTypeId();\n    }\n\n    // function sellBlock(address to, uint256 _id) external creatorOnly(_id) returns(Pixel[] memory){\n    //     Meta memory currentMeta = blocks[_id];\n    //     Meta memory newMeta = Meta({\n    //         account: to,\n    //         hexColor: currentMeta.hexColor,\n    //         x: currentMeta.x,\n    //         y: currentMeta.y\n    //     });\n    //     blocks[_id] = newMeta;\n\n    //     safeTransferFrom(msg.sender, to, _id, 1, \"\");\n    //     return getAllPixels();\n    // }\n\n    // function getAllPixels() public view returns(mapping (bytes32 => Pixel)) {\n    //     return pixels;\n    // }\n\n    function _incrementTokenTypeId() private  {\n        _currentTokenID++;\n    }\n\n    function getHashFromCords(uint256 x, uint256 y) internal pure returns (bytes32) {\n        return sha256(abi.encodePacked(x, y));\n   }\n}",
  "sourcePath": "/Users/matthewruddy/Projects/DAPP/truffle/contracts/PixelToken.sol",
  "compiler": {
    "name": "solc",
    "version": "0.6.2+commit.bacdbe57.Emscripten.clang"
  },
  "schemaVersion": "3.2.5",
  "updatedAt": "2021-02-25T02:39:16.492Z",
  "devdoc": {
    "methods": {
      "balanceOf(address,uint256)": {
        "details": "See {IERC1155-balanceOf}.     * Requirements:     * - `account` cannot be the zero address."
      },
      "balanceOfBatch(address[],uint256[])": {
        "details": "See {IERC1155-balanceOfBatch}.     * Requirements:     * - `accounts` and `ids` must have the same length."
      },
      "isApprovedForAll(address,address)": {
        "details": "See {IERC1155-isApprovedForAll}."
      },
      "safeBatchTransferFrom(address,address,uint256[],uint256[],bytes)": {
        "details": "See {IERC1155-safeBatchTransferFrom}."
      },
      "safeTransferFrom(address,address,uint256,uint256,bytes)": {
        "details": "See {IERC1155-safeTransferFrom}."
      },
      "setApprovalForAll(address,bool)": {
        "details": "See {IERC1155-setApprovalForAll}."
      },
      "supportsInterface(bytes4)": {
        "details": "See {IERC165-supportsInterface}.     * Time complexity O(1), guaranteed to always use less than 30 000 gas."
      },
      "uri(uint256)": {
        "details": "See {IERC1155MetadataURI-uri}.     * This implementation returns the same URI for *all* token types. It relies on the token type ID substitution mechanism https://eips.ethereum.org/EIPS/eip-1155#metadata[defined in the EIP].     * Clients calling this function must replace the `\\{id\\}` substring with the actual token type ID."
      }
    }
  },
  "userdoc": {
    "methods": {}
  }
}