{
  "contractName": "PixelToken",
  "abi": [
    {
      "inputs": [],
      "stateMutability": "nonpayable",
      "type": "constructor"
    },
    {
      "anonymous": false,
      "inputs": [
        {
          "indexed": true,
          "internalType": "address",
          "name": "account",
          "type": "address"
        },
        {
          "indexed": true,
          "internalType": "address",
          "name": "operator",
          "type": "address"
        },
        {
          "indexed": false,
          "internalType": "bool",
          "name": "approved",
          "type": "bool"
        }
      ],
      "name": "ApprovalForAll",
      "type": "event"
    },
    {
      "anonymous": false,
      "inputs": [
        {
          "indexed": false,
          "internalType": "address",
          "name": "_from",
          "type": "address"
        },
        {
          "components": [
            {
              "internalType": "address",
              "name": "account",
              "type": "address"
            },
            {
              "internalType": "string",
              "name": "hexColor",
              "type": "string"
            },
            {
              "internalType": "uint256",
              "name": "x",
              "type": "uint256"
            },
            {
              "internalType": "uint256",
              "name": "y",
              "type": "uint256"
            }
          ],
          "indexed": false,
          "internalType": "struct PixelToken.Meta",
          "name": "data",
          "type": "tuple"
        }
      ],
      "name": "PixelTransaction",
      "type": "event"
    },
    {
      "anonymous": false,
      "inputs": [
        {
          "indexed": true,
          "internalType": "address",
          "name": "operator",
          "type": "address"
        },
        {
          "indexed": true,
          "internalType": "address",
          "name": "from",
          "type": "address"
        },
        {
          "indexed": true,
          "internalType": "address",
          "name": "to",
          "type": "address"
        },
        {
          "indexed": false,
          "internalType": "uint256[]",
          "name": "ids",
          "type": "uint256[]"
        },
        {
          "indexed": false,
          "internalType": "uint256[]",
          "name": "values",
          "type": "uint256[]"
        }
      ],
      "name": "TransferBatch",
      "type": "event"
    },
    {
      "anonymous": false,
      "inputs": [
        {
          "indexed": true,
          "internalType": "address",
          "name": "operator",
          "type": "address"
        },
        {
          "indexed": true,
          "internalType": "address",
          "name": "from",
          "type": "address"
        },
        {
          "indexed": true,
          "internalType": "address",
          "name": "to",
          "type": "address"
        },
        {
          "indexed": false,
          "internalType": "uint256",
          "name": "id",
          "type": "uint256"
        },
        {
          "indexed": false,
          "internalType": "uint256",
          "name": "value",
          "type": "uint256"
        }
      ],
      "name": "TransferSingle",
      "type": "event"
    },
    {
      "anonymous": false,
      "inputs": [
        {
          "indexed": false,
          "internalType": "string",
          "name": "value",
          "type": "string"
        },
        {
          "indexed": true,
          "internalType": "uint256",
          "name": "id",
          "type": "uint256"
        }
      ],
      "name": "URI",
      "type": "event"
    },
    {
      "inputs": [
        {
          "internalType": "address",
          "name": "account",
          "type": "address"
        },
        {
          "internalType": "uint256",
          "name": "id",
          "type": "uint256"
        }
      ],
      "name": "balanceOf",
      "outputs": [
        {
          "internalType": "uint256",
          "name": "",
          "type": "uint256"
        }
      ],
      "stateMutability": "view",
      "type": "function",
      "constant": true
    },
    {
      "inputs": [
        {
          "internalType": "address[]",
          "name": "accounts",
          "type": "address[]"
        },
        {
          "internalType": "uint256[]",
          "name": "ids",
          "type": "uint256[]"
        }
      ],
      "name": "balanceOfBatch",
      "outputs": [
        {
          "internalType": "uint256[]",
          "name": "",
          "type": "uint256[]"
        }
      ],
      "stateMutability": "view",
      "type": "function",
      "constant": true
    },
    {
      "inputs": [
        {
          "internalType": "uint256",
          "name": "",
          "type": "uint256"
        }
      ],
      "name": "creators",
      "outputs": [
        {
          "internalType": "address",
          "name": "account",
          "type": "address"
        },
        {
          "internalType": "string",
          "name": "hexColor",
          "type": "string"
        },
        {
          "internalType": "uint256",
          "name": "x",
          "type": "uint256"
        },
        {
          "internalType": "uint256",
          "name": "y",
          "type": "uint256"
        }
      ],
      "stateMutability": "view",
      "type": "function",
      "constant": true
    },
    {
      "inputs": [
        {
          "internalType": "address",
          "name": "account",
          "type": "address"
        },
        {
          "internalType": "address",
          "name": "operator",
          "type": "address"
        }
      ],
      "name": "isApprovedForAll",
      "outputs": [
        {
          "internalType": "bool",
          "name": "",
          "type": "bool"
        }
      ],
      "stateMutability": "view",
      "type": "function",
      "constant": true
    },
    {
      "inputs": [],
      "name": "name",
      "outputs": [
        {
          "internalType": "string",
          "name": "",
          "type": "string"
        }
      ],
      "stateMutability": "view",
      "type": "function",
      "constant": true
    },
    {
      "inputs": [
        {
          "internalType": "address",
          "name": "from",
          "type": "address"
        },
        {
          "internalType": "address",
          "name": "to",
          "type": "address"
        },
        {
          "internalType": "uint256[]",
          "name": "ids",
          "type": "uint256[]"
        },
        {
          "internalType": "uint256[]",
          "name": "amounts",
          "type": "uint256[]"
        },
        {
          "internalType": "bytes",
          "name": "data",
          "type": "bytes"
        }
      ],
      "name": "safeBatchTransferFrom",
      "outputs": [],
      "stateMutability": "nonpayable",
      "type": "function"
    },
    {
      "inputs": [
        {
          "internalType": "address",
          "name": "from",
          "type": "address"
        },
        {
          "internalType": "address",
          "name": "to",
          "type": "address"
        },
        {
          "internalType": "uint256",
          "name": "id",
          "type": "uint256"
        },
        {
          "internalType": "uint256",
          "name": "amount",
          "type": "uint256"
        },
        {
          "internalType": "bytes",
          "name": "data",
          "type": "bytes"
        }
      ],
      "name": "safeTransferFrom",
      "outputs": [],
      "stateMutability": "nonpayable",
      "type": "function"
    },
    {
      "inputs": [
        {
          "internalType": "address",
          "name": "operator",
          "type": "address"
        },
        {
          "internalType": "bool",
          "name": "approved",
          "type": "bool"
        }
      ],
      "name": "setApprovalForAll",
      "outputs": [],
      "stateMutability": "nonpayable",
      "type": "function"
    },
    {
      "inputs": [
        {
          "internalType": "bytes4",
          "name": "interfaceId",
          "type": "bytes4"
        }
      ],
      "name": "supportsInterface",
      "outputs": [
        {
          "internalType": "bool",
          "name": "",
          "type": "bool"
        }
      ],
      "stateMutability": "view",
      "type": "function",
      "constant": true
    },
    {
      "inputs": [],
      "name": "symbol",
      "outputs": [
        {
          "internalType": "string",
          "name": "",
          "type": "string"
        }
      ],
      "stateMutability": "view",
      "type": "function",
      "constant": true
    },
    {
      "inputs": [
        {
          "internalType": "uint256",
          "name": "",
          "type": "uint256"
        }
      ],
      "name": "uri",
      "outputs": [
        {
          "internalType": "string",
          "name": "",
          "type": "string"
        }
      ],
      "stateMutability": "view",
      "type": "function",
      "constant": true
    },
    {
      "inputs": [
        {
          "internalType": "address payable",
          "name": "_owner",
          "type": "address"
        }
      ],
      "name": "changeOwner",
      "outputs": [],
      "stateMutability": "nonpayable",
      "type": "function"
    },
    {
      "inputs": [
        {
          "internalType": "uint256",
          "name": "x",
          "type": "uint256"
        },
        {
          "internalType": "uint256",
          "name": "y",
          "type": "uint256"
        },
        {
          "internalType": "string",
          "name": "hexColor",
          "type": "string"
        }
      ],
      "name": "create",
      "outputs": [],
      "stateMutability": "payable",
      "type": "function",
      "payable": true
    },
    {
      "inputs": [
        {
          "internalType": "address",
          "name": "to",
          "type": "address"
        },
        {
          "internalType": "uint256",
          "name": "_id",
          "type": "uint256"
        }
      ],
      "name": "send",
      "outputs": [
        {
          "components": [
            {
              "internalType": "uint256",
              "name": "id",
              "type": "uint256"
            },
            {
              "components": [
                {
                  "internalType": "address",
                  "name": "account",
                  "type": "address"
                },
                {
                  "internalType": "string",
                  "name": "hexColor",
                  "type": "string"
                },
                {
                  "internalType": "uint256",
                  "name": "x",
                  "type": "uint256"
                },
                {
                  "internalType": "uint256",
                  "name": "y",
                  "type": "uint256"
                }
              ],
              "internalType": "struct PixelToken.Meta",
              "name": "meta",
              "type": "tuple"
            }
          ],
          "internalType": "struct PixelToken.Pixel[]",
          "name": "",
          "type": "tuple[]"
        }
      ],
      "stateMutability": "nonpayable",
      "type": "function"
    },
    {
      "inputs": [],
      "name": "getAllPixels",
      "outputs": [
        {
          "components": [
            {
              "internalType": "uint256",
              "name": "id",
              "type": "uint256"
            },
            {
              "components": [
                {
                  "internalType": "address",
                  "name": "account",
                  "type": "address"
                },
                {
                  "internalType": "string",
                  "name": "hexColor",
                  "type": "string"
                },
                {
                  "internalType": "uint256",
                  "name": "x",
                  "type": "uint256"
                },
                {
                  "internalType": "uint256",
                  "name": "y",
                  "type": "uint256"
                }
              ],
              "internalType": "struct PixelToken.Meta",
              "name": "meta",
              "type": "tuple"
            }
          ],
          "internalType": "struct PixelToken.Pixel[]",
          "name": "",
          "type": "tuple[]"
        }
      ],
      "stateMutability": "view",
      "type": "function",
      "constant": true
    }
  ],
  "bytecode": "0x608060405260006006553480156200001657600080fd5b506040518060600160405280603c815260200162003af2603c9139620000496301ffc9a760e01b6200019160201b60201c565b6200005a816200026960201b60201c565b6200007263d9b67a2660e01b6200019160201b60201c565b6200008a630e89341c60e01b6200019160201b60201c565b506040518060400160405280600a81526020017f506978656c546f6b656e0000000000000000000000000000000000000000000081525060089080519060200190620000d892919062000285565b506040518060400160405280600381526020017f5058540000000000000000000000000000000000000000000000000000000000815250600990805190602001906200012692919062000285565b507316fb96a5fa0427af0c8f7cf1eb4870231c8154b6600460006101000a81548173ffffffffffffffffffffffffffffffffffffffff021916908373ffffffffffffffffffffffffffffffffffffffff160217905550670de0b6b3a7640000600581905550620003a9565b63ffffffff60e01b817bffffffffffffffffffffffffffffffffffffffffffffffffffffffff19161415620001fd576040517f08c379a0000000000000000000000000000000000000000000000000000000008152600401620001f49062000376565b60405180910390fd5b6001600080837bffffffffffffffffffffffffffffffffffffffffffffffffffffffff19167bffffffffffffffffffffffffffffffffffffffffffffffffffffffff1916815260200190815260200160002060006101000a81548160ff02191690831515021790555050565b80600390805190602001906200028192919062000285565b5050565b828054600181600116156101000203166002900490600052602060002090601f016020900481019282601f10620002c857805160ff1916838001178555620002f9565b82800160010185558215620002f9579182015b82811115620002f8578251825591602001919060010190620002db565b5b5090506200030891906200030c565b5090565b6200033191905b808211156200032d57600081600090555060010162000313565b5090565b90565b600062000343601c8362000398565b91507f4552433136353a20696e76616c696420696e74657266616365206964000000006000830152602082019050919050565b60006020820190508181036000830152620003918162000334565b9050919050565b600082825260208201905092915050565b61373980620003b96000396000f3fe6080604052600436106100e75760003560e01c806370d72d631161008a578063cd53d08e11610059578063cd53d08e146102f8578063d0679d3414610338578063e985e9c514610375578063f242432a146103b2576100e7565b806370d72d631461025057806395d89b411461027b578063a22cb465146102a6578063a6f9dae1146102cf576100e7565b80630e89341c116100c65780630e89341c146101915780632eb2c2d6146101ce5780634b068c78146101f75780634e1273f414610213576100e7565b8062fdd58e146100ec57806301ffc9a71461012957806306fdde0314610166575b600080fd5b3480156100f857600080fd5b50610113600480360361010e91908101906126c1565b6103db565b60405161012091906133a4565b60405180910390f35b34801561013557600080fd5b50610150600480360361014b9190810190612769565b6104a5565b60405161015d91906131c5565b60405180910390f35b34801561017257600080fd5b5061017b61050c565b60405161018891906131e0565b60405180910390f35b34801561019d57600080fd5b506101b860048036036101b391908101906127bb565b6105aa565b6040516101c59190613202565b60405180910390f35b3480156101da57600080fd5b506101f560048036036101f09190810190612537565b61064e565b005b610211600480360361020c91908101906127e4565b610a12565b005b34801561021f57600080fd5b5061023a600480360361023591908101906126fd565b610bf7565b604051610247919061316c565b60405180910390f35b34801561025c57600080fd5b50610265610cdf565b604051610272919061314a565b60405180910390f35b34801561028757600080fd5b50610290610e9b565b60405161029d91906131e0565b60405180910390f35b3480156102b257600080fd5b506102cd60048036036102c89190810190612685565b610f39565b005b3480156102db57600080fd5b506102f660048036036102f191908101906124d2565b6110ba565b005b34801561030457600080fd5b5061031f600480360361031a91908101906127bb565b61118e565b60405161032f94939291906130fe565b60405180910390f35b34801561034457600080fd5b5061035f600480360361035a91908101906126c1565b611276565b60405161036c919061314a565b60405180910390f35b34801561038157600080fd5b5061039c600480360361039791908101906124fb565b61155d565b6040516103a991906131c5565b60405180910390f35b3480156103be57600080fd5b506103d960048036036103d491908101906125f6565b6115f1565b005b60008073ffffffffffffffffffffffffffffffffffffffff168373ffffffffffffffffffffffffffffffffffffffff16141561044c576040517f08c379a000000000000000000000000000000000000000000000000000000000815260040161044390613264565b60405180910390fd5b6001600083815260200190815260200160002060008473ffffffffffffffffffffffffffffffffffffffff1673ffffffffffffffffffffffffffffffffffffffff16815260200190815260200160002054905092915050565b6000806000837bffffffffffffffffffffffffffffffffffffffffffffffffffffffff19167bffffffffffffffffffffffffffffffffffffffffffffffffffffffff1916815260200190815260200160002060009054906101000a900460ff169050919050565b60088054600181600116156101000203166002900480601f0160208091040260200160405190810160405280929190818152602001828054600181600116156101000203166002900480156105a25780601f10610577576101008083540402835291602001916105a2565b820191906000526020600020905b81548152906001019060200180831161058557829003601f168201915b505050505081565b606060038054600181600116156101000203166002900480601f0160208091040260200160405190810160405280929190818152602001828054600181600116156101000203166002900480156106425780601f1061061757610100808354040283529160200191610642565b820191906000526020600020905b81548152906001019060200180831161062557829003601f168201915b50505050509050919050565b8151835114610692576040517f08c379a000000000000000000000000000000000000000000000000000000000815260040161068990613344565b60405180910390fd5b600073ffffffffffffffffffffffffffffffffffffffff168473ffffffffffffffffffffffffffffffffffffffff161415610702576040517f08c379a00000000000000000000000000000000000000000000000000000000081526004016106f9906132c4565b60405180910390fd5b61070a611934565b73ffffffffffffffffffffffffffffffffffffffff168573ffffffffffffffffffffffffffffffffffffffff161480610750575061074f8561074a611934565b61155d565b5b61078f576040517f08c379a0000000000000000000000000000000000000000000000000000000008152600401610786906132e4565b60405180910390fd5b6000610799611934565b90506107a981878787878761193c565b60008090505b845181101561097d5760008582815181106107c657fe5b6020026020010151905060008583815181106107de57fe5b60200260200101519050610865816040518060600160405280602a81526020016136da602a91396001600086815260200190815260200160002060008d73ffffffffffffffffffffffffffffffffffffffff1673ffffffffffffffffffffffffffffffffffffffff168152602001908152602001600020546119449092919063ffffffff16565b6001600084815260200190815260200160002060008b73ffffffffffffffffffffffffffffffffffffffff1673ffffffffffffffffffffffffffffffffffffffff1681526020019081526020016000208190555061091c816001600085815260200190815260200160002060008b73ffffffffffffffffffffffffffffffffffffffff1673ffffffffffffffffffffffffffffffffffffffff1681526020019081526020016000205461199990919063ffffffff16565b6001600084815260200190815260200160002060008a73ffffffffffffffffffffffffffffffffffffffff1673ffffffffffffffffffffffffffffffffffffffff1681526020019081526020016000208190555050508060010190506107af565b508473ffffffffffffffffffffffffffffffffffffffff168673ffffffffffffffffffffffffffffffffffffffff168273ffffffffffffffffffffffffffffffffffffffff167f4a39dc06d4c0dbc64b70af90fd698a233a518aa5d07e595d983b8c0526c8f7fb87876040516109f492919061318e565b60405180910390a4610a0a8187878787876119ee565b505050505050565b610a1a61216f565b60405180608001604052803373ffffffffffffffffffffffffffffffffffffffff16815260200184848080601f016020809104026020016040519081016040528093929190818152602001838380828437600081840152601f19601f8201169050808301925050505050505081526020018681526020018581525090508060076000600654815260200190815260200160002060008201518160000160006101000a81548173ffffffffffffffffffffffffffffffffffffffff021916908373ffffffffffffffffffffffffffffffffffffffff1602179055506020820151816001019080519060200190610b109291906121ad565b506040820151816002015560608201518160030155905050600460009054906101000a900473ffffffffffffffffffffffffffffffffffffffff1673ffffffffffffffffffffffffffffffffffffffff166108fc349081150290604051600060405180830381858888f19350505050158015610b90573d6000803e3d6000fd5b50610baf33600654600160405180602001604052806000815250611c7b565b7fc27a4cc43483a00324960ef7a980c61e57a00c60b2bd4795894199d1e7b873c63382604051610be092919061300c565b60405180910390a1610bf0611e62565b5050505050565b60608151835114610c3d576040517f08c379a0000000000000000000000000000000000000000000000000000000008152600401610c3490613324565b60405180910390fd5b60608351604051908082528060200260200182016040528015610c6f5781602001602082028038833980820191505090505b50905060008090505b8451811015610cd457610cb1858281518110610c9057fe5b6020026020010151858381518110610ca457fe5b60200260200101516103db565b828281518110610cbd57fe5b602002602001018181525050806001019050610c78565b508091505092915050565b606080600654604051908082528060200260200182016040528015610d1e57816020015b610d0b61222d565b815260200190600190039081610d035790505b50905060008090505b600654811015610e93576040518060400160405280828152602001600760008481526020019081526020016000206040518060800160405290816000820160009054906101000a900473ffffffffffffffffffffffffffffffffffffffff1673ffffffffffffffffffffffffffffffffffffffff1673ffffffffffffffffffffffffffffffffffffffff168152602001600182018054600181600116156101000203166002900480601f016020809104026020016040519081016040528092919081815260200182805460018160011615610100020316600290048015610e4f5780601f10610e2457610100808354040283529160200191610e4f565b820191906000526020600020905b815481529060010190602001808311610e3257829003601f168201915b5050505050815260200160028201548152602001600382015481525050815250828281518110610e7b57fe5b60200260200101819052508080600101915050610d27565b508091505090565b60098054600181600116156101000203166002900480601f016020809104026020016040519081016040528092919081815260200182805460018160011615610100020316600290048015610f315780601f10610f0657610100808354040283529160200191610f31565b820191906000526020600020905b815481529060010190602001808311610f1457829003601f168201915b505050505081565b8173ffffffffffffffffffffffffffffffffffffffff16610f58611934565b73ffffffffffffffffffffffffffffffffffffffff161415610faf576040517f08c379a0000000000000000000000000000000000000000000000000000000008152600401610fa690613304565b60405180910390fd5b8060026000610fbc611934565b73ffffffffffffffffffffffffffffffffffffffff1673ffffffffffffffffffffffffffffffffffffffff16815260200190815260200160002060008473ffffffffffffffffffffffffffffffffffffffff1673ffffffffffffffffffffffffffffffffffffffff16815260200190815260200160002060006101000a81548160ff0219169083151502179055508173ffffffffffffffffffffffffffffffffffffffff16611069611934565b73ffffffffffffffffffffffffffffffffffffffff167f17307eab39ab6107e8899845ad3d59bd9653f200f220920489ca2b5937696c31836040516110ae91906131c5565b60405180910390a35050565b600460009054906101000a900473ffffffffffffffffffffffffffffffffffffffff1673ffffffffffffffffffffffffffffffffffffffff163373ffffffffffffffffffffffffffffffffffffffff161461114a576040517f08c379a000000000000000000000000000000000000000000000000000000000815260040161114190613384565b60405180910390fd5b80600460006101000a81548173ffffffffffffffffffffffffffffffffffffffff021916908373ffffffffffffffffffffffffffffffffffffffff16021790555050565b60076020528060005260406000206000915090508060000160009054906101000a900473ffffffffffffffffffffffffffffffffffffffff1690806001018054600181600116156101000203166002900480601f0160208091040260200160405190810160405280929190818152602001828054600181600116156101000203166002900480156112605780601f1061123557610100808354040283529160200191611260565b820191906000526020600020905b81548152906001019060200180831161124357829003601f168201915b5050505050908060020154908060030154905084565b6060813373ffffffffffffffffffffffffffffffffffffffff166007600083815260200190815260200160002060000160009054906101000a900473ffffffffffffffffffffffffffffffffffffffff1673ffffffffffffffffffffffffffffffffffffffff161461131d576040517f08c379a000000000000000000000000000000000000000000000000000000000815260040161131490613384565b60405180910390fd5b61132561216f565b600760008581526020019081526020016000206040518060800160405290816000820160009054906101000a900473ffffffffffffffffffffffffffffffffffffffff1673ffffffffffffffffffffffffffffffffffffffff1673ffffffffffffffffffffffffffffffffffffffff168152602001600182018054600181600116156101000203166002900480601f0160208091040260200160405190810160405280929190818152602001828054600181600116156101000203166002900480156114325780601f1061140757610100808354040283529160200191611432565b820191906000526020600020905b81548152906001019060200180831161141557829003601f168201915b5050505050815260200160028201548152602001600382015481525050905061145961216f565b60405180608001604052808773ffffffffffffffffffffffffffffffffffffffff168152602001836020015181526020018360400151815260200183606001518152509050806007600087815260200190815260200160002060008201518160000160006101000a81548173ffffffffffffffffffffffffffffffffffffffff021916908373ffffffffffffffffffffffffffffffffffffffff16021790555060208201518160010190805190602001906115159291906121ad565b50604082015181600201556060820151816003015590505061154a3387876001604051806020016040528060008152506115f1565b611552610cdf565b935050505092915050565b6000600260008473ffffffffffffffffffffffffffffffffffffffff1673ffffffffffffffffffffffffffffffffffffffff16815260200190815260200160002060008373ffffffffffffffffffffffffffffffffffffffff1673ffffffffffffffffffffffffffffffffffffffff16815260200190815260200160002060009054906101000a900460ff16905092915050565b600073ffffffffffffffffffffffffffffffffffffffff168473ffffffffffffffffffffffffffffffffffffffff161415611661576040517f08c379a0000000000000000000000000000000000000000000000000000000008152600401611658906132c4565b60405180910390fd5b611669611934565b73ffffffffffffffffffffffffffffffffffffffff168573ffffffffffffffffffffffffffffffffffffffff1614806116af57506116ae856116a9611934565b61155d565b5b6116ee576040517f08c379a00000000000000000000000000000000000000000000000000000000081526004016116e5906132a4565b60405180910390fd5b60006116f8611934565b905061171881878761170988611e76565b61171288611e76565b8761193c565b611795836040518060600160405280602a81526020016136da602a91396001600088815260200190815260200160002060008a73ffffffffffffffffffffffffffffffffffffffff1673ffffffffffffffffffffffffffffffffffffffff168152602001908152602001600020546119449092919063ffffffff16565b6001600086815260200190815260200160002060008873ffffffffffffffffffffffffffffffffffffffff1673ffffffffffffffffffffffffffffffffffffffff1681526020019081526020016000208190555061184c836001600087815260200190815260200160002060008873ffffffffffffffffffffffffffffffffffffffff1673ffffffffffffffffffffffffffffffffffffffff1681526020019081526020016000205461199990919063ffffffff16565b6001600086815260200190815260200160002060008773ffffffffffffffffffffffffffffffffffffffff1673ffffffffffffffffffffffffffffffffffffffff168152602001908152602001600020819055508473ffffffffffffffffffffffffffffffffffffffff168673ffffffffffffffffffffffffffffffffffffffff168273ffffffffffffffffffffffffffffffffffffffff167fc3d58168c5ae7397731d063d5bbf3d657854427343f4c083240f7aacaa2d0f6287876040516119169291906133bf565b60405180910390a461192c818787878787611ecf565b505050505050565b600033905090565b505050505050565b600083831115829061198c576040517f08c379a00000000000000000000000000000000000000000000000000000000081526004016119839190613202565b60405180910390fd5b5082840390509392505050565b6000808284019050838110156119e4576040517f08c379a00000000000000000000000000000000000000000000000000000000081526004016119db90613284565b60405180910390fd5b8091505092915050565b611a0d8473ffffffffffffffffffffffffffffffffffffffff1661215c565b15611c73578373ffffffffffffffffffffffffffffffffffffffff1663bc197c8187878686866040518663ffffffff1660e01b8152600401611a5395949392919061303c565b602060405180830381600087803b158015611a6d57600080fd5b505af1925050508015611a9e57506040513d601f19601f82011682018060405250611a9b9190810190612792565b60015b611bea576000604051905060008152600115611b675760443d1015611ac65760009050611b67565b60046000803e60005160e01c6308c379a08114611ae7576000915050611b67565b60043d036004833e81513d602482011167ffffffffffffffff82111715611b1357600092505050611b67565b808301805167ffffffffffffffff811115611b35576000945050505050611b67565b8060208301013d8601811115611b5357600095505050505050611b67565b601f19601f82011660405282955050505050505b80611b725750611baf565b806040517f08c379a0000000000000000000000000000000000000000000000000000000008152600401611ba69190613202565b60405180910390fd5b6040517f08c379a0000000000000000000000000000000000000000000000000000000008152600401611be190613224565b60405180910390fd5b63bc197c8160e01b7bffffffffffffffffffffffffffffffffffffffffffffffffffffffff1916817bffffffffffffffffffffffffffffffffffffffffffffffffffffffff191614611c71576040517f08c379a0000000000000000000000000000000000000000000000000000000008152600401611c6890613244565b60405180910390fd5b505b505050505050565b600073ffffffffffffffffffffffffffffffffffffffff168473ffffffffffffffffffffffffffffffffffffffff161415611ceb576040517f08c379a0000000000000000000000000000000000000000000000000000000008152600401611ce290613364565b60405180910390fd5b6000611cf5611934565b9050611d1681600087611d0788611e76565b611d1088611e76565b8761193c565b611d79836001600087815260200190815260200160002060008873ffffffffffffffffffffffffffffffffffffffff1673ffffffffffffffffffffffffffffffffffffffff1681526020019081526020016000205461199990919063ffffffff16565b6001600086815260200190815260200160002060008773ffffffffffffffffffffffffffffffffffffffff1673ffffffffffffffffffffffffffffffffffffffff168152602001908152602001600020819055508473ffffffffffffffffffffffffffffffffffffffff16600073ffffffffffffffffffffffffffffffffffffffff168273ffffffffffffffffffffffffffffffffffffffff167fc3d58168c5ae7397731d063d5bbf3d657854427343f4c083240f7aacaa2d0f628787604051611e449291906133bf565b60405180910390a4611e5b81600087878787611ecf565b5050505050565b600660008154809291906001019190505550565b6060806001604051908082528060200260200182016040528015611ea95781602001602082028038833980820191505090505b5090508281600081518110611eba57fe5b60200260200101818152505080915050919050565b611eee8473ffffffffffffffffffffffffffffffffffffffff1661215c565b15612154578373ffffffffffffffffffffffffffffffffffffffff1663f23a6e6187878686866040518663ffffffff1660e01b8152600401611f349594939291906130a4565b602060405180830381600087803b158015611f4e57600080fd5b505af1925050508015611f7f57506040513d601f19601f82011682018060405250611f7c9190810190612792565b60015b6120cb5760006040519050600081526001156120485760443d1015611fa75760009050612048565b60046000803e60005160e01c6308c379a08114611fc8576000915050612048565b60043d036004833e81513d602482011167ffffffffffffffff82111715611ff457600092505050612048565b808301805167ffffffffffffffff811115612016576000945050505050612048565b8060208301013d860181111561203457600095505050505050612048565b601f19601f82011660405282955050505050505b806120535750612090565b806040517f08c379a00000000000000000000000000000000000000000000000000000000081526004016120879190613202565b60405180910390fd5b6040517f08c379a00000000000000000000000000000000000000000000000000000000081526004016120c290613224565b60405180910390fd5b63f23a6e6160e01b7bffffffffffffffffffffffffffffffffffffffffffffffffffffffff1916817bffffffffffffffffffffffffffffffffffffffffffffffffffffffff191614612152576040517f08c379a000000000000000000000000000000000000000000000000000000000815260040161214990613244565b60405180910390fd5b505b505050505050565b600080823b905060008111915050919050565b6040518060800160405280600073ffffffffffffffffffffffffffffffffffffffff1681526020016060815260200160008152602001600081525090565b828054600181600116156101000203166002900490600052602060002090601f016020900481019282601f106121ee57805160ff191683800117855561221c565b8280016001018555821561221c579182015b8281111561221b578251825591602001919060010190612200565b5b509050612229919061224d565b5090565b604051806040016040528060008152602001612247612272565b81525090565b61226f91905b8082111561226b576000816000905550600101612253565b5090565b90565b6040518060800160405280600073ffffffffffffffffffffffffffffffffffffffff1681526020016060815260200160008152602001600081525090565b6000813590506122bf81613666565b92915050565b6000813590506122d48161367d565b92915050565b600082601f8301126122eb57600080fd5b81356122fe6122f982613415565b6133e8565b9150818183526020840193506020810190508385602084028201111561232357600080fd5b60005b83811015612353578161233988826122b0565b845260208401935060208301925050600181019050612326565b5050505092915050565b600082601f83011261236e57600080fd5b813561238161237c8261343d565b6133e8565b915081818352602084019350602081019050838560208402820111156123a657600080fd5b60005b838110156123d657816123bc88826124bd565b8452602084019350602083019250506001810190506123a9565b5050505092915050565b6000813590506123ef81613694565b92915050565b600081359050612404816136ab565b92915050565b600081519050612419816136ab565b92915050565b600082601f83011261243057600080fd5b813561244361243e82613465565b6133e8565b9150808252602083016020830185838301111561245f57600080fd5b61246a838284613613565b50505092915050565b60008083601f84011261248557600080fd5b8235905067ffffffffffffffff81111561249e57600080fd5b6020830191508360018202830111156124b657600080fd5b9250929050565b6000813590506124cc816136c2565b92915050565b6000602082840312156124e457600080fd5b60006124f2848285016122c5565b91505092915050565b6000806040838503121561250e57600080fd5b600061251c858286016122b0565b925050602061252d858286016122b0565b9150509250929050565b600080600080600060a0868803121561254f57600080fd5b600061255d888289016122b0565b955050602061256e888289016122b0565b945050604086013567ffffffffffffffff81111561258b57600080fd5b6125978882890161235d565b935050606086013567ffffffffffffffff8111156125b457600080fd5b6125c08882890161235d565b925050608086013567ffffffffffffffff8111156125dd57600080fd5b6125e98882890161241f565b9150509295509295909350565b600080600080600060a0868803121561260e57600080fd5b600061261c888289016122b0565b955050602061262d888289016122b0565b945050604061263e888289016124bd565b935050606061264f888289016124bd565b925050608086013567ffffffffffffffff81111561266c57600080fd5b6126788882890161241f565b9150509295509295909350565b6000806040838503121561269857600080fd5b60006126a6858286016122b0565b92505060206126b7858286016123e0565b9150509250929050565b600080604083850312156126d457600080fd5b60006126e2858286016122b0565b92505060206126f3858286016124bd565b9150509250929050565b6000806040838503121561271057600080fd5b600083013567ffffffffffffffff81111561272a57600080fd5b612736858286016122da565b925050602083013567ffffffffffffffff81111561275357600080fd5b61275f8582860161235d565b9150509250929050565b60006020828403121561277b57600080fd5b6000612789848285016123f5565b91505092915050565b6000602082840312156127a457600080fd5b60006127b28482850161240a565b91505092915050565b6000602082840312156127cd57600080fd5b60006127db848285016124bd565b91505092915050565b600080600080606085870312156127fa57600080fd5b6000612808878288016124bd565b9450506020612819878288016124bd565b935050604085013567ffffffffffffffff81111561283657600080fd5b61284287828801612473565b925092505092959194509250565b600061285c8383612fb1565b905092915050565b60006128708383612fee565b60208301905092915050565b612885816135dd565b82525050565b61289481613557565b82525050565b6128a381613557565b82525050565b60006128b4826134b1565b6128be8185613502565b9350836020820285016128d085613491565b8060005b8581101561290c57848403895281516128ed8582612850565b94506128f8836134e8565b925060208a019950506001810190506128d4565b50829750879550505050505092915050565b6000612929826134bc565b6129338185613513565b935061293e836134a1565b8060005b8381101561296f5781516129568882612864565b9750612961836134f5565b925050600181019050612942565b5085935050505092915050565b6129858161357b565b82525050565b6000612996826134c7565b6129a08185613524565b93506129b0818560208601613622565b6129b981613655565b840191505092915050565b60006129cf826134dd565b6129d98185613546565b93506129e9818560208601613622565b6129f281613655565b840191505092915050565b6000612a08826134d2565b612a128185613535565b9350612a22818560208601613622565b612a2b81613655565b840191505092915050565b6000612a41826134d2565b612a4b8185613546565b9350612a5b818560208601613622565b612a6481613655565b840191505092915050565b6000612a7c603483613546565b91507f455243313135353a207472616e7366657220746f206e6f6e204552433131353560008301527f526563656976657220696d706c656d656e7465720000000000000000000000006020830152604082019050919050565b6000612ae2602883613546565b91507f455243313135353a204552433131353552656365697665722072656a6563746560008301527f6420746f6b656e730000000000000000000000000000000000000000000000006020830152604082019050919050565b6000612b48602b83613546565b91507f455243313135353a2062616c616e636520717565727920666f7220746865207a60008301527f65726f20616464726573730000000000000000000000000000000000000000006020830152604082019050919050565b6000612bae601b83613546565b91507f536166654d6174683a206164646974696f6e206f766572666c6f7700000000006000830152602082019050919050565b6000612bee602983613546565b91507f455243313135353a2063616c6c6572206973206e6f74206f776e6572206e6f7260008301527f20617070726f76656400000000000000000000000000000000000000000000006020830152604082019050919050565b6000612c54602583613546565b91507f455243313135353a207472616e7366657220746f20746865207a65726f20616460008301527f64726573730000000000000000000000000000000000000000000000000000006020830152604082019050919050565b6000612cba603283613546565b91507f455243313135353a207472616e736665722063616c6c6572206973206e6f742060008301527f6f776e6572206e6f7220617070726f76656400000000000000000000000000006020830152604082019050919050565b6000612d20602983613546565b91507f455243313135353a2073657474696e6720617070726f76616c2073746174757360008301527f20666f722073656c6600000000000000000000000000000000000000000000006020830152604082019050919050565b6000612d86602983613546565b91507f455243313135353a206163636f756e747320616e6420696473206c656e67746860008301527f206d69736d6174636800000000000000000000000000000000000000000000006020830152604082019050919050565b6000612dec602883613546565b91507f455243313135353a2069647320616e6420616d6f756e7473206c656e6774682060008301527f6d69736d617463680000000000000000000000000000000000000000000000006020830152604082019050919050565b6000612e52602183613546565b91507f455243313135353a206d696e7420746f20746865207a65726f2061646472657360008301527f73000000000000000000000000000000000000000000000000000000000000006020830152604082019050919050565b6000612eb8600c83613546565b91507f43726561746f72204f6e6c7900000000000000000000000000000000000000006000830152602082019050919050565b6000608083016000830151612f03600086018261288b565b5060208301518482036020860152612f1b82826129fd565b9150506040830151612f306040860182612fee565b506060830151612f436060860182612fee565b508091505092915050565b6000608083016000830151612f66600086018261288b565b5060208301518482036020860152612f7e82826129fd565b9150506040830151612f936040860182612fee565b506060830151612fa66060860182612fee565b508091505092915050565b6000604083016000830151612fc96000860182612fee565b5060208301518482036020860152612fe18282612f4e565b9150508091505092915050565b612ff7816135d3565b82525050565b613006816135d3565b82525050565b6000604082019050613021600083018561287c565b81810360208301526130338184612eeb565b90509392505050565b600060a082019050613051600083018861289a565b61305e602083018761289a565b8181036040830152613070818661291e565b90508181036060830152613084818561291e565b90508181036080830152613098818461298b565b90509695505050505050565b600060a0820190506130b9600083018861289a565b6130c6602083018761289a565b6130d36040830186612ffd565b6130e06060830185612ffd565b81810360808301526130f2818461298b565b90509695505050505050565b6000608082019050613113600083018761289a565b81810360208301526131258186612a36565b90506131346040830185612ffd565b6131416060830184612ffd565b95945050505050565b6000602082019050818103600083015261316481846128a9565b905092915050565b60006020820190508181036000830152613186818461291e565b905092915050565b600060408201905081810360008301526131a8818561291e565b905081810360208301526131bc818461291e565b90509392505050565b60006020820190506131da600083018461297c565b92915050565b600060208201905081810360008301526131fa8184612a36565b905092915050565b6000602082019050818103600083015261321c81846129c4565b905092915050565b6000602082019050818103600083015261323d81612a6f565b9050919050565b6000602082019050818103600083015261325d81612ad5565b9050919050565b6000602082019050818103600083015261327d81612b3b565b9050919050565b6000602082019050818103600083015261329d81612ba1565b9050919050565b600060208201905081810360008301526132bd81612be1565b9050919050565b600060208201905081810360008301526132dd81612c47565b9050919050565b600060208201905081810360008301526132fd81612cad565b9050919050565b6000602082019050818103600083015261331d81612d13565b9050919050565b6000602082019050818103600083015261333d81612d79565b9050919050565b6000602082019050818103600083015261335d81612ddf565b9050919050565b6000602082019050818103600083015261337d81612e45565b9050919050565b6000602082019050818103600083015261339d81612eab565b9050919050565b60006020820190506133b96000830184612ffd565b92915050565b60006040820190506133d46000830185612ffd565b6133e16020830184612ffd565b9392505050565b6000604051905081810181811067ffffffffffffffff8211171561340b57600080fd5b8060405250919050565b600067ffffffffffffffff82111561342c57600080fd5b602082029050602081019050919050565b600067ffffffffffffffff82111561345457600080fd5b602082029050602081019050919050565b600067ffffffffffffffff82111561347c57600080fd5b601f19601f8301169050602081019050919050565b6000819050602082019050919050565b6000819050602082019050919050565b600081519050919050565b600081519050919050565b600081519050919050565b600081519050919050565b600081519050919050565b6000602082019050919050565b6000602082019050919050565b600082825260208201905092915050565b600082825260208201905092915050565b600082825260208201905092915050565b600082825260208201905092915050565b600082825260208201905092915050565b6000613562826135b3565b9050919050565b6000613574826135b3565b9050919050565b60008115159050919050565b60007fffffffff0000000000000000000000000000000000000000000000000000000082169050919050565b600073ffffffffffffffffffffffffffffffffffffffff82169050919050565b6000819050919050565b60006135e8826135ef565b9050919050565b60006135fa82613601565b9050919050565b600061360c826135b3565b9050919050565b82818337600083830152505050565b60005b83811015613640578082015181840152602081019050613625565b8381111561364f576000848401525b50505050565b6000601f19601f8301169050919050565b61366f81613557565b811461367a57600080fd5b50565b61368681613569565b811461369157600080fd5b50565b61369d8161357b565b81146136a857600080fd5b50565b6136b481613587565b81146136bf57600080fd5b50565b6136cb816135d3565b81146136d657600080fd5b5056fe455243313135353a20696e73756666696369656e742062616c616e636520666f72207472616e73666572a264697066735822122096dc5a129f84c5ec0976108440e93d53b7d6d81d31a3751cb6ff696c0fef061064736f6c6343000602003368747470733a2f2f6769746875622e636f6d2f6d61747472756464792f444150502f626c6f622f6d61737465722f6974656d2f7b69647d2e6a736f6e",
  "source": "pragma solidity 0.6.2;\npragma experimental ABIEncoderV2;\n\nimport \"@openzeppelin/contracts/token/ERC1155/ERC1155.sol\";\n\ncontract PixelToken is ERC1155 {\n\n    address payable owner;\n    uint256 transactionFee;\n\n    struct Pixel {\n        uint256 id;\n        Meta meta;\n    }\n\n    struct Meta {\n        address account;\n        string hexColor;\n        uint256 x;\n        uint256 y;\n    }\n\n    event PixelTransaction(address _from, Meta data);\n\n    uint256 private _currentTokenID = 0;\n    mapping (uint256 => Meta) public creators;\n\n    // Contract name\n    string public name;\n    // Contract symbol\n    string public symbol;\n\n    modifier creatorOnly(uint256 _id) {\n        require(creators[_id].account == msg.sender, \"Creator Only\");\n        _;\n    }\n\n    modifier isOwner() {\n        require(msg.sender == owner, \"Creator Only\");\n        _;\n    }\n\n    constructor() public ERC1155(\"https://github.com/mattruddy/DAPP/blob/master/item/{id}.json\") {\n        name = \"PixelToken\";\n        symbol = \"PXT\";\n        owner = 0x16Fb96a5fa0427Af0C8F7cF1eB4870231c8154B6;\n        transactionFee = 1000000000000000000;\n    }\n\n    function changeOwner(address payable _owner) public isOwner {\n        owner = _owner;\n    }\n\n    function create(uint256 x, uint256 y, string calldata hexColor) external payable {\n        //require(msg.value == transactionFee, 'Value is not enough');\n        Meta memory meta = Meta({\n            account: msg.sender, \n            hexColor: hexColor,\n            x: x,\n            y: y           \n        });\n\n        creators[_currentTokenID] = meta;\n\n        owner.transfer(msg.value);\n        _mint(msg.sender, _currentTokenID, 1, \"\");\n        emit PixelTransaction(msg.sender, meta);\n        _incrementTokenTypeId();\n    }\n\n    function send(address to, uint256 _id) external creatorOnly(_id) returns(Pixel[] memory){\n\n        Meta memory currentMeta = creators[_id];\n        Meta memory newMeta = Meta({\n            account: to,\n            hexColor: currentMeta.hexColor,\n            x: currentMeta.x,\n            y: currentMeta.y\n        });\n        creators[_id] = newMeta;\n\n        safeTransferFrom(msg.sender, to, _id, 1, \"\");\n        return getAllPixels();\n    }\n\n    function getAllPixels() public view returns(Pixel[] memory) {\n        Pixel[] memory pixels = new Pixel[](_currentTokenID);\n        for(uint i =0; i < _currentTokenID; i++) {\n            pixels[i] = Pixel({\n                id: i,\n                meta: creators[i]\n            });\n        }\n        return pixels;\n    }\n\n    function _incrementTokenTypeId() private  {\n        _currentTokenID++;\n    }\n}",
  "sourcePath": "/Users/matthewruddy/Desktop/Apps/DAPP/truffle/contracts/PixelToken.sol",
  "compiler": {
    "name": "solc",
    "version": "0.6.2+commit.bacdbe57.Emscripten.clang"
  },
  "schemaVersion": "3.2.5",
  "updatedAt": "2021-02-17T01:03:37.099Z",
  "networkType": "ethereum",
  "devdoc": {
    "methods": {
      "balanceOf(address,uint256)": {
        "details": "See {IERC1155-balanceOf}.     * Requirements:     * - `account` cannot be the zero address."
      },
      "balanceOfBatch(address[],uint256[])": {
        "details": "See {IERC1155-balanceOfBatch}.     * Requirements:     * - `accounts` and `ids` must have the same length."
      },
      "isApprovedForAll(address,address)": {
        "details": "See {IERC1155-isApprovedForAll}."
      },
      "safeBatchTransferFrom(address,address,uint256[],uint256[],bytes)": {
        "details": "See {IERC1155-safeBatchTransferFrom}."
      },
      "safeTransferFrom(address,address,uint256,uint256,bytes)": {
        "details": "See {IERC1155-safeTransferFrom}."
      },
      "setApprovalForAll(address,bool)": {
        "details": "See {IERC1155-setApprovalForAll}."
      },
      "supportsInterface(bytes4)": {
        "details": "See {IERC165-supportsInterface}.     * Time complexity O(1), guaranteed to always use less than 30 000 gas."
      },
      "uri(uint256)": {
        "details": "See {IERC1155MetadataURI-uri}.     * This implementation returns the same URI for *all* token types. It relies on the token type ID substitution mechanism https://eips.ethereum.org/EIPS/eip-1155#metadata[defined in the EIP].     * Clients calling this function must replace the `\\{id\\}` substring with the actual token type ID."
      }
    }
  },
  "userdoc": {
    "methods": {}
  }
}