{
  "contractName": "PixelToken",
  "abi": [
    {
      "inputs": [],
      "stateMutability": "nonpayable",
      "type": "constructor"
    },
    {
      "anonymous": false,
      "inputs": [
        {
          "indexed": true,
          "internalType": "address",
          "name": "account",
          "type": "address"
        },
        {
          "indexed": true,
          "internalType": "address",
          "name": "operator",
          "type": "address"
        },
        {
          "indexed": false,
          "internalType": "bool",
          "name": "approved",
          "type": "bool"
        }
      ],
      "name": "ApprovalForAll",
      "type": "event"
    },
    {
      "anonymous": false,
      "inputs": [
        {
          "indexed": false,
          "internalType": "address",
          "name": "_from",
          "type": "address"
        },
        {
          "components": [
            {
              "internalType": "address",
              "name": "account",
              "type": "address"
            },
            {
              "internalType": "string",
              "name": "hexColor",
              "type": "string"
            },
            {
              "internalType": "uint256",
              "name": "x",
              "type": "uint256"
            },
            {
              "internalType": "uint256",
              "name": "y",
              "type": "uint256"
            }
          ],
          "indexed": false,
          "internalType": "struct PixelToken.Meta",
          "name": "data",
          "type": "tuple"
        }
      ],
      "name": "PixelTransaction",
      "type": "event"
    },
    {
      "anonymous": false,
      "inputs": [
        {
          "indexed": true,
          "internalType": "address",
          "name": "operator",
          "type": "address"
        },
        {
          "indexed": true,
          "internalType": "address",
          "name": "from",
          "type": "address"
        },
        {
          "indexed": true,
          "internalType": "address",
          "name": "to",
          "type": "address"
        },
        {
          "indexed": false,
          "internalType": "uint256[]",
          "name": "ids",
          "type": "uint256[]"
        },
        {
          "indexed": false,
          "internalType": "uint256[]",
          "name": "values",
          "type": "uint256[]"
        }
      ],
      "name": "TransferBatch",
      "type": "event"
    },
    {
      "anonymous": false,
      "inputs": [
        {
          "indexed": true,
          "internalType": "address",
          "name": "operator",
          "type": "address"
        },
        {
          "indexed": true,
          "internalType": "address",
          "name": "from",
          "type": "address"
        },
        {
          "indexed": true,
          "internalType": "address",
          "name": "to",
          "type": "address"
        },
        {
          "indexed": false,
          "internalType": "uint256",
          "name": "id",
          "type": "uint256"
        },
        {
          "indexed": false,
          "internalType": "uint256",
          "name": "value",
          "type": "uint256"
        }
      ],
      "name": "TransferSingle",
      "type": "event"
    },
    {
      "anonymous": false,
      "inputs": [
        {
          "indexed": false,
          "internalType": "string",
          "name": "value",
          "type": "string"
        },
        {
          "indexed": true,
          "internalType": "uint256",
          "name": "id",
          "type": "uint256"
        }
      ],
      "name": "URI",
      "type": "event"
    },
    {
      "inputs": [
        {
          "internalType": "address",
          "name": "account",
          "type": "address"
        },
        {
          "internalType": "uint256",
          "name": "id",
          "type": "uint256"
        }
      ],
      "name": "balanceOf",
      "outputs": [
        {
          "internalType": "uint256",
          "name": "",
          "type": "uint256"
        }
      ],
      "stateMutability": "view",
      "type": "function",
      "constant": true
    },
    {
      "inputs": [
        {
          "internalType": "address[]",
          "name": "accounts",
          "type": "address[]"
        },
        {
          "internalType": "uint256[]",
          "name": "ids",
          "type": "uint256[]"
        }
      ],
      "name": "balanceOfBatch",
      "outputs": [
        {
          "internalType": "uint256[]",
          "name": "",
          "type": "uint256[]"
        }
      ],
      "stateMutability": "view",
      "type": "function",
      "constant": true
    },
    {
      "inputs": [
        {
          "internalType": "uint256",
          "name": "",
          "type": "uint256"
        }
      ],
      "name": "creators",
      "outputs": [
        {
          "internalType": "address",
          "name": "account",
          "type": "address"
        },
        {
          "internalType": "string",
          "name": "hexColor",
          "type": "string"
        },
        {
          "internalType": "uint256",
          "name": "x",
          "type": "uint256"
        },
        {
          "internalType": "uint256",
          "name": "y",
          "type": "uint256"
        }
      ],
      "stateMutability": "view",
      "type": "function",
      "constant": true
    },
    {
      "inputs": [
        {
          "internalType": "address",
          "name": "account",
          "type": "address"
        },
        {
          "internalType": "address",
          "name": "operator",
          "type": "address"
        }
      ],
      "name": "isApprovedForAll",
      "outputs": [
        {
          "internalType": "bool",
          "name": "",
          "type": "bool"
        }
      ],
      "stateMutability": "view",
      "type": "function",
      "constant": true
    },
    {
      "inputs": [],
      "name": "name",
      "outputs": [
        {
          "internalType": "string",
          "name": "",
          "type": "string"
        }
      ],
      "stateMutability": "view",
      "type": "function",
      "constant": true
    },
    {
      "inputs": [
        {
          "internalType": "address",
          "name": "from",
          "type": "address"
        },
        {
          "internalType": "address",
          "name": "to",
          "type": "address"
        },
        {
          "internalType": "uint256[]",
          "name": "ids",
          "type": "uint256[]"
        },
        {
          "internalType": "uint256[]",
          "name": "amounts",
          "type": "uint256[]"
        },
        {
          "internalType": "bytes",
          "name": "data",
          "type": "bytes"
        }
      ],
      "name": "safeBatchTransferFrom",
      "outputs": [],
      "stateMutability": "nonpayable",
      "type": "function"
    },
    {
      "inputs": [
        {
          "internalType": "address",
          "name": "from",
          "type": "address"
        },
        {
          "internalType": "address",
          "name": "to",
          "type": "address"
        },
        {
          "internalType": "uint256",
          "name": "id",
          "type": "uint256"
        },
        {
          "internalType": "uint256",
          "name": "amount",
          "type": "uint256"
        },
        {
          "internalType": "bytes",
          "name": "data",
          "type": "bytes"
        }
      ],
      "name": "safeTransferFrom",
      "outputs": [],
      "stateMutability": "nonpayable",
      "type": "function"
    },
    {
      "inputs": [
        {
          "internalType": "address",
          "name": "operator",
          "type": "address"
        },
        {
          "internalType": "bool",
          "name": "approved",
          "type": "bool"
        }
      ],
      "name": "setApprovalForAll",
      "outputs": [],
      "stateMutability": "nonpayable",
      "type": "function"
    },
    {
      "inputs": [
        {
          "internalType": "bytes4",
          "name": "interfaceId",
          "type": "bytes4"
        }
      ],
      "name": "supportsInterface",
      "outputs": [
        {
          "internalType": "bool",
          "name": "",
          "type": "bool"
        }
      ],
      "stateMutability": "view",
      "type": "function",
      "constant": true
    },
    {
      "inputs": [],
      "name": "symbol",
      "outputs": [
        {
          "internalType": "string",
          "name": "",
          "type": "string"
        }
      ],
      "stateMutability": "view",
      "type": "function",
      "constant": true
    },
    {
      "inputs": [
        {
          "internalType": "uint256",
          "name": "",
          "type": "uint256"
        }
      ],
      "name": "uri",
      "outputs": [
        {
          "internalType": "string",
          "name": "",
          "type": "string"
        }
      ],
      "stateMutability": "view",
      "type": "function",
      "constant": true
    },
    {
      "inputs": [
        {
          "internalType": "address payable",
          "name": "_owner",
          "type": "address"
        }
      ],
      "name": "changeOwner",
      "outputs": [],
      "stateMutability": "nonpayable",
      "type": "function"
    },
    {
      "inputs": [
        {
          "internalType": "uint256",
          "name": "_amount",
          "type": "uint256"
        }
      ],
      "name": "changeFee",
      "outputs": [],
      "stateMutability": "nonpayable",
      "type": "function"
    },
    {
      "inputs": [
        {
          "internalType": "uint256",
          "name": "x",
          "type": "uint256"
        },
        {
          "internalType": "uint256",
          "name": "y",
          "type": "uint256"
        },
        {
          "internalType": "string",
          "name": "hexColor",
          "type": "string"
        }
      ],
      "name": "create",
      "outputs": [],
      "stateMutability": "payable",
      "type": "function",
      "payable": true
    },
    {
      "inputs": [
        {
          "internalType": "address",
          "name": "to",
          "type": "address"
        },
        {
          "internalType": "uint256",
          "name": "_id",
          "type": "uint256"
        }
      ],
      "name": "send",
      "outputs": [
        {
          "components": [
            {
              "internalType": "uint256",
              "name": "id",
              "type": "uint256"
            },
            {
              "components": [
                {
                  "internalType": "address",
                  "name": "account",
                  "type": "address"
                },
                {
                  "internalType": "string",
                  "name": "hexColor",
                  "type": "string"
                },
                {
                  "internalType": "uint256",
                  "name": "x",
                  "type": "uint256"
                },
                {
                  "internalType": "uint256",
                  "name": "y",
                  "type": "uint256"
                }
              ],
              "internalType": "struct PixelToken.Meta",
              "name": "meta",
              "type": "tuple"
            }
          ],
          "internalType": "struct PixelToken.Pixel[]",
          "name": "",
          "type": "tuple[]"
        }
      ],
      "stateMutability": "nonpayable",
      "type": "function"
    },
    {
      "inputs": [],
      "name": "getAllPixels",
      "outputs": [
        {
          "components": [
            {
              "internalType": "uint256",
              "name": "id",
              "type": "uint256"
            },
            {
              "components": [
                {
                  "internalType": "address",
                  "name": "account",
                  "type": "address"
                },
                {
                  "internalType": "string",
                  "name": "hexColor",
                  "type": "string"
                },
                {
                  "internalType": "uint256",
                  "name": "x",
                  "type": "uint256"
                },
                {
                  "internalType": "uint256",
                  "name": "y",
                  "type": "uint256"
                }
              ],
              "internalType": "struct PixelToken.Meta",
              "name": "meta",
              "type": "tuple"
            }
          ],
          "internalType": "struct PixelToken.Pixel[]",
          "name": "",
          "type": "tuple[]"
        }
      ],
      "stateMutability": "view",
      "type": "function",
      "constant": true
    }
  ],
  "bytecode": "0x608060405260006008553480156200001657600080fd5b506040518060600160405280603c815260200162003c8c603c9139620000496301ffc9a760e01b620001a360201b60201c565b6200005a816200027b60201b60201c565b6200007263d9b67a2660e01b620001a360201b60201c565b6200008a630e89341c60e01b620001a360201b60201c565b506040518060400160405280600a81526020017f506978656c546f6b656e00000000000000000000000000000000000000000000815250600b9080519060200190620000d892919062000297565b506040518060400160405280600381526020017f5058540000000000000000000000000000000000000000000000000000000000815250600c90805190602001906200012692919062000297565b507316fb96a5fa0427af0c8f7cf1eb4870231c8154b6600460006101000a81548173ffffffffffffffffffffffffffffffffffffffff021916908373ffffffffffffffffffffffffffffffffffffffff160217905550611b58600681905550610fa0600781905550670de0b6b3a7640000600581905550620003bb565b63ffffffff60e01b817bffffffffffffffffffffffffffffffffffffffffffffffffffffffff191614156200020f576040517f08c379a0000000000000000000000000000000000000000000000000000000008152600401620002069062000388565b60405180910390fd5b6001600080837bffffffffffffffffffffffffffffffffffffffffffffffffffffffff19167bffffffffffffffffffffffffffffffffffffffffffffffffffffffff1916815260200190815260200160002060006101000a81548160ff02191690831515021790555050565b80600390805190602001906200029392919062000297565b5050565b828054600181600116156101000203166002900490600052602060002090601f016020900481019282601f10620002da57805160ff19168380011785556200030b565b828001600101855582156200030b579182015b828111156200030a578251825591602001919060010190620002ed565b5b5090506200031a91906200031e565b5090565b6200034391905b808211156200033f57600081600090555060010162000325565b5090565b90565b600062000355601c83620003aa565b91507f4552433136353a20696e76616c696420696e74657266616365206964000000006000830152602082019050919050565b60006020820190508181036000830152620003a38162000346565b9050919050565b600082825260208201905092915050565b6138c180620003cb6000396000f3fe6080604052600436106100f25760003560e01c806370d72d631161008a578063cd53d08e11610059578063cd53d08e1461032c578063d0679d341461036c578063e985e9c5146103a9578063f242432a146103e6576100f2565b806370d72d631461028457806395d89b41146102af578063a22cb465146102da578063a6f9dae114610303576100f2565b80632eb2c2d6116100c65780632eb2c2d6146101d95780634b068c78146102025780634e1273f41461021e5780636a1db1bf1461025b576100f2565b8062fdd58e146100f757806301ffc9a71461013457806306fdde03146101715780630e89341c1461019c575b600080fd5b34801561010357600080fd5b5061011e600480360361011991908101906127e9565b61040f565b60405161012b919061352c565b60405180910390f35b34801561014057600080fd5b5061015b60048036036101569190810190612891565b6104d9565b604051610168919061332d565b60405180910390f35b34801561017d57600080fd5b50610186610540565b6040516101939190613348565b60405180910390f35b3480156101a857600080fd5b506101c360048036036101be91908101906128e3565b6105de565b6040516101d0919061336a565b60405180910390f35b3480156101e557600080fd5b5061020060048036036101fb919081019061265f565b610682565b005b61021c6004803603610217919081019061290c565b610a46565b005b34801561022a57600080fd5b5061024560048036036102409190810190612825565b610c85565b60405161025291906132d4565b60405180910390f35b34801561026757600080fd5b50610282600480360361027d91908101906128e3565b610d6d565b005b34801561029057600080fd5b50610299610e07565b6040516102a691906132b2565b60405180910390f35b3480156102bb57600080fd5b506102c4610fc3565b6040516102d19190613348565b60405180910390f35b3480156102e657600080fd5b5061030160048036036102fc91908101906127ad565b611061565b005b34801561030f57600080fd5b5061032a600480360361032591908101906125fa565b6111e2565b005b34801561033857600080fd5b50610353600480360361034e91908101906128e3565b6112b6565b6040516103639493929190613266565b60405180910390f35b34801561037857600080fd5b50610393600480360361038e91908101906127e9565b61139e565b6040516103a091906132b2565b60405180910390f35b3480156103b557600080fd5b506103d060048036036103cb9190810190612623565b611685565b6040516103dd919061332d565b60405180910390f35b3480156103f257600080fd5b5061040d6004803603610408919081019061271e565b611719565b005b60008073ffffffffffffffffffffffffffffffffffffffff168373ffffffffffffffffffffffffffffffffffffffff161415610480576040517f08c379a0000000000000000000000000000000000000000000000000000000008152600401610477906133cc565b60405180910390fd5b6001600083815260200190815260200160002060008473ffffffffffffffffffffffffffffffffffffffff1673ffffffffffffffffffffffffffffffffffffffff16815260200190815260200160002054905092915050565b6000806000837bffffffffffffffffffffffffffffffffffffffffffffffffffffffff19167bffffffffffffffffffffffffffffffffffffffffffffffffffffffff1916815260200190815260200160002060009054906101000a900460ff169050919050565b600b8054600181600116156101000203166002900480601f0160208091040260200160405190810160405280929190818152602001828054600181600116156101000203166002900480156105d65780601f106105ab576101008083540402835291602001916105d6565b820191906000526020600020905b8154815290600101906020018083116105b957829003601f168201915b505050505081565b606060038054600181600116156101000203166002900480601f0160208091040260200160405190810160405280929190818152602001828054600181600116156101000203166002900480156106765780601f1061064b57610100808354040283529160200191610676565b820191906000526020600020905b81548152906001019060200180831161065957829003601f168201915b50505050509050919050565b81518351146106c6576040517f08c379a00000000000000000000000000000000000000000000000000000000081526004016106bd906134cc565b60405180910390fd5b600073ffffffffffffffffffffffffffffffffffffffff168473ffffffffffffffffffffffffffffffffffffffff161415610736576040517f08c379a000000000000000000000000000000000000000000000000000000000815260040161072d9061344c565b60405180910390fd5b61073e611a5c565b73ffffffffffffffffffffffffffffffffffffffff168573ffffffffffffffffffffffffffffffffffffffff16148061078457506107838561077e611a5c565b611685565b5b6107c3576040517f08c379a00000000000000000000000000000000000000000000000000000000081526004016107ba9061346c565b60405180910390fd5b60006107cd611a5c565b90506107dd818787878787611a64565b60008090505b84518110156109b15760008582815181106107fa57fe5b60200260200101519050600085838151811061081257fe5b60200260200101519050610899816040518060600160405280602a8152602001613862602a91396001600086815260200190815260200160002060008d73ffffffffffffffffffffffffffffffffffffffff1673ffffffffffffffffffffffffffffffffffffffff16815260200190815260200160002054611a6c9092919063ffffffff16565b6001600084815260200190815260200160002060008b73ffffffffffffffffffffffffffffffffffffffff1673ffffffffffffffffffffffffffffffffffffffff16815260200190815260200160002081905550610950816001600085815260200190815260200160002060008b73ffffffffffffffffffffffffffffffffffffffff1673ffffffffffffffffffffffffffffffffffffffff16815260200190815260200160002054611ac190919063ffffffff16565b6001600084815260200190815260200160002060008a73ffffffffffffffffffffffffffffffffffffffff1673ffffffffffffffffffffffffffffffffffffffff1681526020019081526020016000208190555050508060010190506107e3565b508473ffffffffffffffffffffffffffffffffffffffff168673ffffffffffffffffffffffffffffffffffffffff168273ffffffffffffffffffffffffffffffffffffffff167f4a39dc06d4c0dbc64b70af90fd698a233a518aa5d07e595d983b8c0526c8f7fb8787604051610a289291906132f6565b60405180910390a4610a3e818787878787611b16565b505050505050565b343373ffffffffffffffffffffffffffffffffffffffff16311015610aa0576040517f08c379a0000000000000000000000000000000000000000000000000000000008152600401610a979061340c565b60405180910390fd5b610aa8612297565b60405180608001604052803373ffffffffffffffffffffffffffffffffffffffff16815260200184848080601f016020809104026020016040519081016040528093929190818152602001838380828437600081840152601f19601f8201169050808301925050505050505081526020018681526020018581525090508060096000600854815260200190815260200160002060008201518160000160006101000a81548173ffffffffffffffffffffffffffffffffffffffff021916908373ffffffffffffffffffffffffffffffffffffffff1602179055506020820151816001019080519060200190610b9e9291906122d5565b506040820151816002015560608201518160030155905050600460009054906101000a900473ffffffffffffffffffffffffffffffffffffffff1673ffffffffffffffffffffffffffffffffffffffff166108fc349081150290604051600060405180830381858888f19350505050158015610c1e573d6000803e3d6000fd5b50610c3d33600854600160405180602001604052806000815250611da3565b7fc27a4cc43483a00324960ef7a980c61e57a00c60b2bd4795894199d1e7b873c63382604051610c6e929190613174565b60405180910390a1610c7e611f8a565b5050505050565b60608151835114610ccb576040517f08c379a0000000000000000000000000000000000000000000000000000000008152600401610cc2906134ac565b60405180910390fd5b60608351604051908082528060200260200182016040528015610cfd5781602001602082028038833980820191505090505b50905060008090505b8451811015610d6257610d3f858281518110610d1e57fe5b6020026020010151858381518110610d3257fe5b602002602001015161040f565b828281518110610d4b57fe5b602002602001018181525050806001019050610d06565b508091505092915050565b600460009054906101000a900473ffffffffffffffffffffffffffffffffffffffff1673ffffffffffffffffffffffffffffffffffffffff163373ffffffffffffffffffffffffffffffffffffffff1614610dfd576040517f08c379a0000000000000000000000000000000000000000000000000000000008152600401610df49061350c565b60405180910390fd5b8060058190555050565b606080600854604051908082528060200260200182016040528015610e4657816020015b610e33612355565b815260200190600190039081610e2b5790505b50905060008090505b600854811015610fbb576040518060400160405280828152602001600960008481526020019081526020016000206040518060800160405290816000820160009054906101000a900473ffffffffffffffffffffffffffffffffffffffff1673ffffffffffffffffffffffffffffffffffffffff1673ffffffffffffffffffffffffffffffffffffffff168152602001600182018054600181600116156101000203166002900480601f016020809104026020016040519081016040528092919081815260200182805460018160011615610100020316600290048015610f775780601f10610f4c57610100808354040283529160200191610f77565b820191906000526020600020905b815481529060010190602001808311610f5a57829003601f168201915b5050505050815260200160028201548152602001600382015481525050815250828281518110610fa357fe5b60200260200101819052508080600101915050610e4f565b508091505090565b600c8054600181600116156101000203166002900480601f0160208091040260200160405190810160405280929190818152602001828054600181600116156101000203166002900480156110595780601f1061102e57610100808354040283529160200191611059565b820191906000526020600020905b81548152906001019060200180831161103c57829003601f168201915b505050505081565b8173ffffffffffffffffffffffffffffffffffffffff16611080611a5c565b73ffffffffffffffffffffffffffffffffffffffff1614156110d7576040517f08c379a00000000000000000000000000000000000000000000000000000000081526004016110ce9061348c565b60405180910390fd5b80600260006110e4611a5c565b73ffffffffffffffffffffffffffffffffffffffff1673ffffffffffffffffffffffffffffffffffffffff16815260200190815260200160002060008473ffffffffffffffffffffffffffffffffffffffff1673ffffffffffffffffffffffffffffffffffffffff16815260200190815260200160002060006101000a81548160ff0219169083151502179055508173ffffffffffffffffffffffffffffffffffffffff16611191611a5c565b73ffffffffffffffffffffffffffffffffffffffff167f17307eab39ab6107e8899845ad3d59bd9653f200f220920489ca2b5937696c31836040516111d6919061332d565b60405180910390a35050565b600460009054906101000a900473ffffffffffffffffffffffffffffffffffffffff1673ffffffffffffffffffffffffffffffffffffffff163373ffffffffffffffffffffffffffffffffffffffff1614611272576040517f08c379a00000000000000000000000000000000000000000000000000000000081526004016112699061350c565b60405180910390fd5b80600460006101000a81548173ffffffffffffffffffffffffffffffffffffffff021916908373ffffffffffffffffffffffffffffffffffffffff16021790555050565b60096020528060005260406000206000915090508060000160009054906101000a900473ffffffffffffffffffffffffffffffffffffffff1690806001018054600181600116156101000203166002900480601f0160208091040260200160405190810160405280929190818152602001828054600181600116156101000203166002900480156113885780601f1061135d57610100808354040283529160200191611388565b820191906000526020600020905b81548152906001019060200180831161136b57829003601f168201915b5050505050908060020154908060030154905084565b6060813373ffffffffffffffffffffffffffffffffffffffff166009600083815260200190815260200160002060000160009054906101000a900473ffffffffffffffffffffffffffffffffffffffff1673ffffffffffffffffffffffffffffffffffffffff1614611445576040517f08c379a000000000000000000000000000000000000000000000000000000000815260040161143c9061350c565b60405180910390fd5b61144d612297565b600960008581526020019081526020016000206040518060800160405290816000820160009054906101000a900473ffffffffffffffffffffffffffffffffffffffff1673ffffffffffffffffffffffffffffffffffffffff1673ffffffffffffffffffffffffffffffffffffffff168152602001600182018054600181600116156101000203166002900480601f01602080910402602001604051908101604052809291908181526020018280546001816001161561010002031660029004801561155a5780601f1061152f5761010080835404028352916020019161155a565b820191906000526020600020905b81548152906001019060200180831161153d57829003601f168201915b50505050508152602001600282015481526020016003820154815250509050611581612297565b60405180608001604052808773ffffffffffffffffffffffffffffffffffffffff168152602001836020015181526020018360400151815260200183606001518152509050806009600087815260200190815260200160002060008201518160000160006101000a81548173ffffffffffffffffffffffffffffffffffffffff021916908373ffffffffffffffffffffffffffffffffffffffff160217905550602082015181600101908051906020019061163d9291906122d5565b506040820151816002015560608201518160030155905050611672338787600160405180602001604052806000815250611719565b61167a610e07565b935050505092915050565b6000600260008473ffffffffffffffffffffffffffffffffffffffff1673ffffffffffffffffffffffffffffffffffffffff16815260200190815260200160002060008373ffffffffffffffffffffffffffffffffffffffff1673ffffffffffffffffffffffffffffffffffffffff16815260200190815260200160002060009054906101000a900460ff16905092915050565b600073ffffffffffffffffffffffffffffffffffffffff168473ffffffffffffffffffffffffffffffffffffffff161415611789576040517f08c379a00000000000000000000000000000000000000000000000000000000081526004016117809061344c565b60405180910390fd5b611791611a5c565b73ffffffffffffffffffffffffffffffffffffffff168573ffffffffffffffffffffffffffffffffffffffff1614806117d757506117d6856117d1611a5c565b611685565b5b611816576040517f08c379a000000000000000000000000000000000000000000000000000000000815260040161180d9061342c565b60405180910390fd5b6000611820611a5c565b905061184081878761183188611f9e565b61183a88611f9e565b87611a64565b6118bd836040518060600160405280602a8152602001613862602a91396001600088815260200190815260200160002060008a73ffffffffffffffffffffffffffffffffffffffff1673ffffffffffffffffffffffffffffffffffffffff16815260200190815260200160002054611a6c9092919063ffffffff16565b6001600086815260200190815260200160002060008873ffffffffffffffffffffffffffffffffffffffff1673ffffffffffffffffffffffffffffffffffffffff16815260200190815260200160002081905550611974836001600087815260200190815260200160002060008873ffffffffffffffffffffffffffffffffffffffff1673ffffffffffffffffffffffffffffffffffffffff16815260200190815260200160002054611ac190919063ffffffff16565b6001600086815260200190815260200160002060008773ffffffffffffffffffffffffffffffffffffffff1673ffffffffffffffffffffffffffffffffffffffff168152602001908152602001600020819055508473ffffffffffffffffffffffffffffffffffffffff168673ffffffffffffffffffffffffffffffffffffffff168273ffffffffffffffffffffffffffffffffffffffff167fc3d58168c5ae7397731d063d5bbf3d657854427343f4c083240f7aacaa2d0f628787604051611a3e929190613547565b60405180910390a4611a54818787878787611ff7565b505050505050565b600033905090565b505050505050565b6000838311158290611ab4576040517f08c379a0000000000000000000000000000000000000000000000000000000008152600401611aab919061336a565b60405180910390fd5b5082840390509392505050565b600080828401905083811015611b0c576040517f08c379a0000000000000000000000000000000000000000000000000000000008152600401611b03906133ec565b60405180910390fd5b8091505092915050565b611b358473ffffffffffffffffffffffffffffffffffffffff16612284565b15611d9b578373ffffffffffffffffffffffffffffffffffffffff1663bc197c8187878686866040518663ffffffff1660e01b8152600401611b7b9594939291906131a4565b602060405180830381600087803b158015611b9557600080fd5b505af1925050508015611bc657506040513d601f19601f82011682018060405250611bc391908101906128ba565b60015b611d12576000604051905060008152600115611c8f5760443d1015611bee5760009050611c8f565b60046000803e60005160e01c6308c379a08114611c0f576000915050611c8f565b60043d036004833e81513d602482011167ffffffffffffffff82111715611c3b57600092505050611c8f565b808301805167ffffffffffffffff811115611c5d576000945050505050611c8f565b8060208301013d8601811115611c7b57600095505050505050611c8f565b601f19601f82011660405282955050505050505b80611c9a5750611cd7565b806040517f08c379a0000000000000000000000000000000000000000000000000000000008152600401611cce919061336a565b60405180910390fd5b6040517f08c379a0000000000000000000000000000000000000000000000000000000008152600401611d099061338c565b60405180910390fd5b63bc197c8160e01b7bffffffffffffffffffffffffffffffffffffffffffffffffffffffff1916817bffffffffffffffffffffffffffffffffffffffffffffffffffffffff191614611d99576040517f08c379a0000000000000000000000000000000000000000000000000000000008152600401611d90906133ac565b60405180910390fd5b505b505050505050565b600073ffffffffffffffffffffffffffffffffffffffff168473ffffffffffffffffffffffffffffffffffffffff161415611e13576040517f08c379a0000000000000000000000000000000000000000000000000000000008152600401611e0a906134ec565b60405180910390fd5b6000611e1d611a5c565b9050611e3e81600087611e2f88611f9e565b611e3888611f9e565b87611a64565b611ea1836001600087815260200190815260200160002060008873ffffffffffffffffffffffffffffffffffffffff1673ffffffffffffffffffffffffffffffffffffffff16815260200190815260200160002054611ac190919063ffffffff16565b6001600086815260200190815260200160002060008773ffffffffffffffffffffffffffffffffffffffff1673ffffffffffffffffffffffffffffffffffffffff168152602001908152602001600020819055508473ffffffffffffffffffffffffffffffffffffffff16600073ffffffffffffffffffffffffffffffffffffffff168273ffffffffffffffffffffffffffffffffffffffff167fc3d58168c5ae7397731d063d5bbf3d657854427343f4c083240f7aacaa2d0f628787604051611f6c929190613547565b60405180910390a4611f8381600087878787611ff7565b5050505050565b600860008154809291906001019190505550565b6060806001604051908082528060200260200182016040528015611fd15781602001602082028038833980820191505090505b5090508281600081518110611fe257fe5b60200260200101818152505080915050919050565b6120168473ffffffffffffffffffffffffffffffffffffffff16612284565b1561227c578373ffffffffffffffffffffffffffffffffffffffff1663f23a6e6187878686866040518663ffffffff1660e01b815260040161205c95949392919061320c565b602060405180830381600087803b15801561207657600080fd5b505af19250505080156120a757506040513d601f19601f820116820180604052506120a491908101906128ba565b60015b6121f35760006040519050600081526001156121705760443d10156120cf5760009050612170565b60046000803e60005160e01c6308c379a081146120f0576000915050612170565b60043d036004833e81513d602482011167ffffffffffffffff8211171561211c57600092505050612170565b808301805167ffffffffffffffff81111561213e576000945050505050612170565b8060208301013d860181111561215c57600095505050505050612170565b601f19601f82011660405282955050505050505b8061217b57506121b8565b806040517f08c379a00000000000000000000000000000000000000000000000000000000081526004016121af919061336a565b60405180910390fd5b6040517f08c379a00000000000000000000000000000000000000000000000000000000081526004016121ea9061338c565b60405180910390fd5b63f23a6e6160e01b7bffffffffffffffffffffffffffffffffffffffffffffffffffffffff1916817bffffffffffffffffffffffffffffffffffffffffffffffffffffffff19161461227a576040517f08c379a0000000000000000000000000000000000000000000000000000000008152600401612271906133ac565b60405180910390fd5b505b505050505050565b600080823b905060008111915050919050565b6040518060800160405280600073ffffffffffffffffffffffffffffffffffffffff1681526020016060815260200160008152602001600081525090565b828054600181600116156101000203166002900490600052602060002090601f016020900481019282601f1061231657805160ff1916838001178555612344565b82800160010185558215612344579182015b82811115612343578251825591602001919060010190612328565b5b5090506123519190612375565b5090565b60405180604001604052806000815260200161236f61239a565b81525090565b61239791905b8082111561239357600081600090555060010161237b565b5090565b90565b6040518060800160405280600073ffffffffffffffffffffffffffffffffffffffff1681526020016060815260200160008152602001600081525090565b6000813590506123e7816137ee565b92915050565b6000813590506123fc81613805565b92915050565b600082601f83011261241357600080fd5b81356124266124218261359d565b613570565b9150818183526020840193506020810190508385602084028201111561244b57600080fd5b60005b8381101561247b578161246188826123d8565b84526020840193506020830192505060018101905061244e565b5050505092915050565b600082601f83011261249657600080fd5b81356124a96124a4826135c5565b613570565b915081818352602084019350602081019050838560208402820111156124ce57600080fd5b60005b838110156124fe57816124e488826125e5565b8452602084019350602083019250506001810190506124d1565b5050505092915050565b6000813590506125178161381c565b92915050565b60008135905061252c81613833565b92915050565b60008151905061254181613833565b92915050565b600082601f83011261255857600080fd5b813561256b612566826135ed565b613570565b9150808252602083016020830185838301111561258757600080fd5b61259283828461379b565b50505092915050565b60008083601f8401126125ad57600080fd5b8235905067ffffffffffffffff8111156125c657600080fd5b6020830191508360018202830111156125de57600080fd5b9250929050565b6000813590506125f48161384a565b92915050565b60006020828403121561260c57600080fd5b600061261a848285016123ed565b91505092915050565b6000806040838503121561263657600080fd5b6000612644858286016123d8565b9250506020612655858286016123d8565b9150509250929050565b600080600080600060a0868803121561267757600080fd5b6000612685888289016123d8565b9550506020612696888289016123d8565b945050604086013567ffffffffffffffff8111156126b357600080fd5b6126bf88828901612485565b935050606086013567ffffffffffffffff8111156126dc57600080fd5b6126e888828901612485565b925050608086013567ffffffffffffffff81111561270557600080fd5b61271188828901612547565b9150509295509295909350565b600080600080600060a0868803121561273657600080fd5b6000612744888289016123d8565b9550506020612755888289016123d8565b9450506040612766888289016125e5565b9350506060612777888289016125e5565b925050608086013567ffffffffffffffff81111561279457600080fd5b6127a088828901612547565b9150509295509295909350565b600080604083850312156127c057600080fd5b60006127ce858286016123d8565b92505060206127df85828601612508565b9150509250929050565b600080604083850312156127fc57600080fd5b600061280a858286016123d8565b925050602061281b858286016125e5565b9150509250929050565b6000806040838503121561283857600080fd5b600083013567ffffffffffffffff81111561285257600080fd5b61285e85828601612402565b925050602083013567ffffffffffffffff81111561287b57600080fd5b61288785828601612485565b9150509250929050565b6000602082840312156128a357600080fd5b60006128b18482850161251d565b91505092915050565b6000602082840312156128cc57600080fd5b60006128da84828501612532565b91505092915050565b6000602082840312156128f557600080fd5b6000612903848285016125e5565b91505092915050565b6000806000806060858703121561292257600080fd5b6000612930878288016125e5565b9450506020612941878288016125e5565b935050604085013567ffffffffffffffff81111561295e57600080fd5b61296a8782880161259b565b925092505092959194509250565b60006129848383613119565b905092915050565b60006129988383613156565b60208301905092915050565b6129ad81613765565b82525050565b6129bc816136df565b82525050565b6129cb816136df565b82525050565b60006129dc82613639565b6129e6818561368a565b9350836020820285016129f885613619565b8060005b85811015612a345784840389528151612a158582612978565b9450612a2083613670565b925060208a019950506001810190506129fc565b50829750879550505050505092915050565b6000612a5182613644565b612a5b818561369b565b9350612a6683613629565b8060005b83811015612a97578151612a7e888261298c565b9750612a898361367d565b925050600181019050612a6a565b5085935050505092915050565b612aad81613703565b82525050565b6000612abe8261364f565b612ac881856136ac565b9350612ad88185602086016137aa565b612ae1816137dd565b840191505092915050565b6000612af782613665565b612b0181856136ce565b9350612b118185602086016137aa565b612b1a816137dd565b840191505092915050565b6000612b308261365a565b612b3a81856136bd565b9350612b4a8185602086016137aa565b612b53816137dd565b840191505092915050565b6000612b698261365a565b612b7381856136ce565b9350612b838185602086016137aa565b612b8c816137dd565b840191505092915050565b6000612ba46034836136ce565b91507f455243313135353a207472616e7366657220746f206e6f6e204552433131353560008301527f526563656976657220696d706c656d656e7465720000000000000000000000006020830152604082019050919050565b6000612c0a6028836136ce565b91507f455243313135353a204552433131353552656365697665722072656a6563746560008301527f6420746f6b656e730000000000000000000000000000000000000000000000006020830152604082019050919050565b6000612c70602b836136ce565b91507f455243313135353a2062616c616e636520717565727920666f7220746865207a60008301527f65726f20616464726573730000000000000000000000000000000000000000006020830152604082019050919050565b6000612cd6601b836136ce565b91507f536166654d6174683a206164646974696f6e206f766572666c6f7700000000006000830152602082019050919050565b6000612d166010836136ce565b91507f4e6f7420656e6f7567682066756e6473000000000000000000000000000000006000830152602082019050919050565b6000612d566029836136ce565b91507f455243313135353a2063616c6c6572206973206e6f74206f776e6572206e6f7260008301527f20617070726f76656400000000000000000000000000000000000000000000006020830152604082019050919050565b6000612dbc6025836136ce565b91507f455243313135353a207472616e7366657220746f20746865207a65726f20616460008301527f64726573730000000000000000000000000000000000000000000000000000006020830152604082019050919050565b6000612e226032836136ce565b91507f455243313135353a207472616e736665722063616c6c6572206973206e6f742060008301527f6f776e6572206e6f7220617070726f76656400000000000000000000000000006020830152604082019050919050565b6000612e886029836136ce565b91507f455243313135353a2073657474696e6720617070726f76616c2073746174757360008301527f20666f722073656c6600000000000000000000000000000000000000000000006020830152604082019050919050565b6000612eee6029836136ce565b91507f455243313135353a206163636f756e747320616e6420696473206c656e67746860008301527f206d69736d6174636800000000000000000000000000000000000000000000006020830152604082019050919050565b6000612f546028836136ce565b91507f455243313135353a2069647320616e6420616d6f756e7473206c656e6774682060008301527f6d69736d617463680000000000000000000000000000000000000000000000006020830152604082019050919050565b6000612fba6021836136ce565b91507f455243313135353a206d696e7420746f20746865207a65726f2061646472657360008301527f73000000000000000000000000000000000000000000000000000000000000006020830152604082019050919050565b6000613020600c836136ce565b91507f43726561746f72204f6e6c7900000000000000000000000000000000000000006000830152602082019050919050565b600060808301600083015161306b60008601826129b3565b50602083015184820360208601526130838282612b25565b91505060408301516130986040860182613156565b5060608301516130ab6060860182613156565b508091505092915050565b60006080830160008301516130ce60008601826129b3565b50602083015184820360208601526130e68282612b25565b91505060408301516130fb6040860182613156565b50606083015161310e6060860182613156565b508091505092915050565b60006040830160008301516131316000860182613156565b506020830151848203602086015261314982826130b6565b9150508091505092915050565b61315f8161375b565b82525050565b61316e8161375b565b82525050565b600060408201905061318960008301856129a4565b818103602083015261319b8184613053565b90509392505050565b600060a0820190506131b960008301886129c2565b6131c660208301876129c2565b81810360408301526131d88186612a46565b905081810360608301526131ec8185612a46565b905081810360808301526132008184612ab3565b90509695505050505050565b600060a08201905061322160008301886129c2565b61322e60208301876129c2565b61323b6040830186613165565b6132486060830185613165565b818103608083015261325a8184612ab3565b90509695505050505050565b600060808201905061327b60008301876129c2565b818103602083015261328d8186612b5e565b905061329c6040830185613165565b6132a96060830184613165565b95945050505050565b600060208201905081810360008301526132cc81846129d1565b905092915050565b600060208201905081810360008301526132ee8184612a46565b905092915050565b600060408201905081810360008301526133108185612a46565b905081810360208301526133248184612a46565b90509392505050565b60006020820190506133426000830184612aa4565b92915050565b600060208201905081810360008301526133628184612b5e565b905092915050565b600060208201905081810360008301526133848184612aec565b905092915050565b600060208201905081810360008301526133a581612b97565b9050919050565b600060208201905081810360008301526133c581612bfd565b9050919050565b600060208201905081810360008301526133e581612c63565b9050919050565b6000602082019050818103600083015261340581612cc9565b9050919050565b6000602082019050818103600083015261342581612d09565b9050919050565b6000602082019050818103600083015261344581612d49565b9050919050565b6000602082019050818103600083015261346581612daf565b9050919050565b6000602082019050818103600083015261348581612e15565b9050919050565b600060208201905081810360008301526134a581612e7b565b9050919050565b600060208201905081810360008301526134c581612ee1565b9050919050565b600060208201905081810360008301526134e581612f47565b9050919050565b6000602082019050818103600083015261350581612fad565b9050919050565b6000602082019050818103600083015261352581613013565b9050919050565b60006020820190506135416000830184613165565b92915050565b600060408201905061355c6000830185613165565b6135696020830184613165565b9392505050565b6000604051905081810181811067ffffffffffffffff8211171561359357600080fd5b8060405250919050565b600067ffffffffffffffff8211156135b457600080fd5b602082029050602081019050919050565b600067ffffffffffffffff8211156135dc57600080fd5b602082029050602081019050919050565b600067ffffffffffffffff82111561360457600080fd5b601f19601f8301169050602081019050919050565b6000819050602082019050919050565b6000819050602082019050919050565b600081519050919050565b600081519050919050565b600081519050919050565b600081519050919050565b600081519050919050565b6000602082019050919050565b6000602082019050919050565b600082825260208201905092915050565b600082825260208201905092915050565b600082825260208201905092915050565b600082825260208201905092915050565b600082825260208201905092915050565b60006136ea8261373b565b9050919050565b60006136fc8261373b565b9050919050565b60008115159050919050565b60007fffffffff0000000000000000000000000000000000000000000000000000000082169050919050565b600073ffffffffffffffffffffffffffffffffffffffff82169050919050565b6000819050919050565b600061377082613777565b9050919050565b600061378282613789565b9050919050565b60006137948261373b565b9050919050565b82818337600083830152505050565b60005b838110156137c85780820151818401526020810190506137ad565b838111156137d7576000848401525b50505050565b6000601f19601f8301169050919050565b6137f7816136df565b811461380257600080fd5b50565b61380e816136f1565b811461381957600080fd5b50565b61382581613703565b811461383057600080fd5b50565b61383c8161370f565b811461384757600080fd5b50565b6138538161375b565b811461385e57600080fd5b5056fe455243313135353a20696e73756666696369656e742062616c616e636520666f72207472616e73666572a26469706673582212205bc60f1a905337e8d99f5394835548516b494b0772c6310ee24fe40befb56c2d64736f6c6343000602003368747470733a2f2f6769746875622e636f6d2f6d61747472756464792f444150502f626c6f622f6d61737465722f6974656d2f7b69647d2e6a736f6e",
  "source": "pragma solidity 0.6.2;\npragma experimental ABIEncoderV2;\n\nimport \"@openzeppelin/contracts/token/ERC1155/ERC1155.sol\";\n\ncontract PixelToken is ERC1155 {\n\n    address payable owner;\n    uint256 transactionFee;\n    uint256 maxX;\n    uint256 maxY;\n\n    struct Pixel {\n        uint256 id;\n        Meta meta;\n    }\n\n    struct Meta {\n        address account;\n        string hexColor;\n        uint256 x;\n        uint256 y;\n    }\n\n    event PixelTransaction(address _from, Meta data);\n\n    uint256 private _currentTokenID = 0;\n    mapping (uint256 => Meta) public creators;\n    mapping (uint256 => uint256) xyCombos;\n\n    // Contract name\n    string public name;\n    // Contract symbol\n    string public symbol;\n\n    modifier creatorOnly(uint256 _id) {\n        require(creators[_id].account == msg.sender, \"Creator Only\");\n        _;\n    }\n\n    modifier isOwner() {\n        require(msg.sender == owner, \"Creator Only\");\n        _;\n    }\n\n    constructor() public ERC1155(\"https://github.com/mattruddy/DAPP/blob/master/item/{id}.json\") {\n        name = \"PixelToken\";\n        symbol = \"PXT\";\n        owner = 0x16Fb96a5fa0427Af0C8F7cF1eB4870231c8154B6;\n        maxX = 7000;\n        maxY = 4000;\n        transactionFee = 1000000000000000000;\n    }\n\n    // Admin\n    function changeOwner(address payable _owner) public isOwner {\n        owner = _owner;\n    }\n\n    function changeFee(uint256 _amount) public isOwner {\n        transactionFee = _amount;\n    }\n\n    function create(uint256 x, uint256 y, string calldata hexColor) external payable {\n        //require(msg.value == transactionFee, 'Value is not enough');\n       // require(x >= 0 && x <= maxX, \"X must be between 0 and 7000\");\n       // require(y >= 0 && y <= maxY, \"Y must be between 0 and 4000\");\n        require(msg.sender.balance >= msg.value, \"Not enough funds\");\n\n        Meta memory meta = Meta({\n            account: msg.sender, \n            hexColor: hexColor,\n            x: x,\n            y: y           \n        });\n\n        creators[_currentTokenID] = meta;\n\n        owner.transfer(msg.value);\n        _mint(msg.sender, _currentTokenID, 1, \"\");\n        emit PixelTransaction(msg.sender, meta);\n        _incrementTokenTypeId();\n    }\n\n    function send(address to, uint256 _id) external creatorOnly(_id) returns(Pixel[] memory){\n        Meta memory currentMeta = creators[_id];\n        Meta memory newMeta = Meta({\n            account: to,\n            hexColor: currentMeta.hexColor,\n            x: currentMeta.x,\n            y: currentMeta.y\n        });\n        creators[_id] = newMeta;\n\n        safeTransferFrom(msg.sender, to, _id, 1, \"\");\n        return getAllPixels();\n    }\n\n    function getAllPixels() public view returns(Pixel[] memory) {\n        Pixel[] memory pixels = new Pixel[](_currentTokenID);\n        for(uint i =0; i < _currentTokenID; i++) {\n            pixels[i] = Pixel({\n                id: i,\n                meta: creators[i]\n            });\n        }\n        return pixels;\n    }\n\n    function _incrementTokenTypeId() private  {\n        _currentTokenID++;\n    }\n}",
  "sourcePath": "/Users/adamgeiger/git/DAPP/contracts/PixelToken.sol",
  "compiler": {
    "name": "solc",
    "version": "0.6.2+commit.bacdbe57.Emscripten.clang"
  },
  "schemaVersion": "3.3.3",
  "updatedAt": "2021-02-23T23:50:53.081Z",
  "networkType": "ethereum",
  "devdoc": {
    "methods": {
      "balanceOf(address,uint256)": {
        "details": "See {IERC1155-balanceOf}.     * Requirements:     * - `account` cannot be the zero address."
      },
      "balanceOfBatch(address[],uint256[])": {
        "details": "See {IERC1155-balanceOfBatch}.     * Requirements:     * - `accounts` and `ids` must have the same length."
      },
      "isApprovedForAll(address,address)": {
        "details": "See {IERC1155-isApprovedForAll}."
      },
      "safeBatchTransferFrom(address,address,uint256[],uint256[],bytes)": {
        "details": "See {IERC1155-safeBatchTransferFrom}."
      },
      "safeTransferFrom(address,address,uint256,uint256,bytes)": {
        "details": "See {IERC1155-safeTransferFrom}."
      },
      "setApprovalForAll(address,bool)": {
        "details": "See {IERC1155-setApprovalForAll}."
      },
      "supportsInterface(bytes4)": {
        "details": "See {IERC165-supportsInterface}.     * Time complexity O(1), guaranteed to always use less than 30 000 gas."
      },
      "uri(uint256)": {
        "details": "See {IERC1155MetadataURI-uri}.     * This implementation returns the same URI for *all* token types. It relies on the token type ID substitution mechanism https://eips.ethereum.org/EIPS/eip-1155#metadata[defined in the EIP].     * Clients calling this function must replace the `\\{id\\}` substring with the actual token type ID."
      }
    }
  },
  "userdoc": {
    "methods": {}
  }
}