{
  "contractName": "PixelToken",
  "abi": [
    {
      "inputs": [],
      "stateMutability": "nonpayable",
      "type": "constructor"
    },
    {
      "anonymous": false,
      "inputs": [
        {
          "indexed": true,
          "internalType": "address",
          "name": "account",
          "type": "address"
        },
        {
          "indexed": true,
          "internalType": "address",
          "name": "operator",
          "type": "address"
        },
        {
          "indexed": false,
          "internalType": "bool",
          "name": "approved",
          "type": "bool"
        }
      ],
      "name": "ApprovalForAll",
      "type": "event"
    },
    {
      "anonymous": false,
      "inputs": [
        {
          "indexed": true,
          "internalType": "address",
          "name": "operator",
          "type": "address"
        },
        {
          "indexed": true,
          "internalType": "address",
          "name": "from",
          "type": "address"
        },
        {
          "indexed": true,
          "internalType": "address",
          "name": "to",
          "type": "address"
        },
        {
          "indexed": false,
          "internalType": "uint256[]",
          "name": "ids",
          "type": "uint256[]"
        },
        {
          "indexed": false,
          "internalType": "uint256[]",
          "name": "values",
          "type": "uint256[]"
        }
      ],
      "name": "TransferBatch",
      "type": "event"
    },
    {
      "anonymous": false,
      "inputs": [
        {
          "indexed": true,
          "internalType": "address",
          "name": "operator",
          "type": "address"
        },
        {
          "indexed": true,
          "internalType": "address",
          "name": "from",
          "type": "address"
        },
        {
          "indexed": true,
          "internalType": "address",
          "name": "to",
          "type": "address"
        },
        {
          "indexed": false,
          "internalType": "uint256",
          "name": "id",
          "type": "uint256"
        },
        {
          "indexed": false,
          "internalType": "uint256",
          "name": "value",
          "type": "uint256"
        }
      ],
      "name": "TransferSingle",
      "type": "event"
    },
    {
      "anonymous": false,
      "inputs": [
        {
          "indexed": false,
          "internalType": "string",
          "name": "value",
          "type": "string"
        },
        {
          "indexed": true,
          "internalType": "uint256",
          "name": "id",
          "type": "uint256"
        }
      ],
      "name": "URI",
      "type": "event"
    },
    {
      "inputs": [
        {
          "internalType": "address",
          "name": "account",
          "type": "address"
        },
        {
          "internalType": "uint256",
          "name": "id",
          "type": "uint256"
        }
      ],
      "name": "balanceOf",
      "outputs": [
        {
          "internalType": "uint256",
          "name": "",
          "type": "uint256"
        }
      ],
      "stateMutability": "view",
      "type": "function",
      "constant": true
    },
    {
      "inputs": [
        {
          "internalType": "address[]",
          "name": "accounts",
          "type": "address[]"
        },
        {
          "internalType": "uint256[]",
          "name": "ids",
          "type": "uint256[]"
        }
      ],
      "name": "balanceOfBatch",
      "outputs": [
        {
          "internalType": "uint256[]",
          "name": "",
          "type": "uint256[]"
        }
      ],
      "stateMutability": "view",
      "type": "function",
      "constant": true
    },
    {
      "inputs": [
        {
          "internalType": "uint256",
          "name": "",
          "type": "uint256"
        }
      ],
      "name": "creators",
      "outputs": [
        {
          "internalType": "address",
          "name": "account",
          "type": "address"
        },
        {
          "internalType": "string",
          "name": "name",
          "type": "string"
        }
      ],
      "stateMutability": "view",
      "type": "function",
      "constant": true
    },
    {
      "inputs": [
        {
          "internalType": "address",
          "name": "account",
          "type": "address"
        },
        {
          "internalType": "address",
          "name": "operator",
          "type": "address"
        }
      ],
      "name": "isApprovedForAll",
      "outputs": [
        {
          "internalType": "bool",
          "name": "",
          "type": "bool"
        }
      ],
      "stateMutability": "view",
      "type": "function",
      "constant": true
    },
    {
      "inputs": [],
      "name": "name",
      "outputs": [
        {
          "internalType": "string",
          "name": "",
          "type": "string"
        }
      ],
      "stateMutability": "view",
      "type": "function",
      "constant": true
    },
    {
      "inputs": [
        {
          "internalType": "address",
          "name": "from",
          "type": "address"
        },
        {
          "internalType": "address",
          "name": "to",
          "type": "address"
        },
        {
          "internalType": "uint256[]",
          "name": "ids",
          "type": "uint256[]"
        },
        {
          "internalType": "uint256[]",
          "name": "amounts",
          "type": "uint256[]"
        },
        {
          "internalType": "bytes",
          "name": "data",
          "type": "bytes"
        }
      ],
      "name": "safeBatchTransferFrom",
      "outputs": [],
      "stateMutability": "nonpayable",
      "type": "function"
    },
    {
      "inputs": [
        {
          "internalType": "address",
          "name": "from",
          "type": "address"
        },
        {
          "internalType": "address",
          "name": "to",
          "type": "address"
        },
        {
          "internalType": "uint256",
          "name": "id",
          "type": "uint256"
        },
        {
          "internalType": "uint256",
          "name": "amount",
          "type": "uint256"
        },
        {
          "internalType": "bytes",
          "name": "data",
          "type": "bytes"
        }
      ],
      "name": "safeTransferFrom",
      "outputs": [],
      "stateMutability": "nonpayable",
      "type": "function"
    },
    {
      "inputs": [
        {
          "internalType": "address",
          "name": "operator",
          "type": "address"
        },
        {
          "internalType": "bool",
          "name": "approved",
          "type": "bool"
        }
      ],
      "name": "setApprovalForAll",
      "outputs": [],
      "stateMutability": "nonpayable",
      "type": "function"
    },
    {
      "inputs": [
        {
          "internalType": "bytes4",
          "name": "interfaceId",
          "type": "bytes4"
        }
      ],
      "name": "supportsInterface",
      "outputs": [
        {
          "internalType": "bool",
          "name": "",
          "type": "bool"
        }
      ],
      "stateMutability": "view",
      "type": "function",
      "constant": true
    },
    {
      "inputs": [],
      "name": "symbol",
      "outputs": [
        {
          "internalType": "string",
          "name": "",
          "type": "string"
        }
      ],
      "stateMutability": "view",
      "type": "function",
      "constant": true
    },
    {
      "inputs": [
        {
          "internalType": "uint256",
          "name": "",
          "type": "uint256"
        }
      ],
      "name": "uri",
      "outputs": [
        {
          "internalType": "string",
          "name": "",
          "type": "string"
        }
      ],
      "stateMutability": "view",
      "type": "function",
      "constant": true
    },
    {
      "inputs": [
        {
          "internalType": "string",
          "name": "itemName",
          "type": "string"
        }
      ],
      "name": "create",
      "outputs": [
        {
          "internalType": "uint256",
          "name": "",
          "type": "uint256"
        }
      ],
      "stateMutability": "nonpayable",
      "type": "function"
    },
    {
      "inputs": [],
      "name": "getAllPixels",
      "outputs": [
        {
          "components": [
            {
              "internalType": "uint256",
              "name": "id",
              "type": "uint256"
            },
            {
              "components": [
                {
                  "internalType": "address",
                  "name": "account",
                  "type": "address"
                },
                {
                  "internalType": "string",
                  "name": "name",
                  "type": "string"
                }
              ],
              "internalType": "struct PixelToken.Meta",
              "name": "meta",
              "type": "tuple"
            }
          ],
          "internalType": "struct PixelToken.Pixel[]",
          "name": "",
          "type": "tuple[]"
        }
      ],
      "stateMutability": "view",
      "type": "function",
      "constant": true
    }
  ],
  "bytecode": "0x608060405260006005553480156200001657600080fd5b506040518060600160405280603c815260200162003f6e603c9139620000496301ffc9a760e01b620002ab60201b60201c565b6200005a816200038360201b60201c565b6200007263d9b67a2660e01b620002ab60201b60201c565b6200008a630e89341c60e01b620002ab60201b60201c565b506040518060400160405280600a81526020017f506978656c546f6b656e0000000000000000000000000000000000000000000081525060079080519060200190620000d89291906200095a565b506040518060400160405280600381526020017f505854000000000000000000000000000000000000000000000000000000000081525060089080519060200190620001269291906200095a565b5033600460006101000a81548173ffffffffffffffffffffffffffffffffffffffff021916908373ffffffffffffffffffffffffffffffffffffffff16021790555060008090505b600a811015620002a4576200019c33826001604051806020016040528060008152506200039f60201b60201c565b620001a6620009e1565b60405180604001604052803373ffffffffffffffffffffffffffffffffffffffff1681526020016040518060400160405280600981526020017f54657374204e616d6500000000000000000000000000000000000000000000008152508152509050806006600084815260200190815260200160002060008201518160000160006101000a81548173ffffffffffffffffffffffffffffffffffffffff021916908373ffffffffffffffffffffffffffffffffffffffff16021790555060208201518160010190805190602001906200028192919062000a11565b5090505062000295620005ba60201b60201c565b5080806001019150506200016e565b5062000fc5565b63ffffffff60e01b817bffffffffffffffffffffffffffffffffffffffffffffffffffffffff1916141562000317576040517f08c379a00000000000000000000000000000000000000000000000000000000081526004016200030e9062000e2f565b60405180910390fd5b6001600080837bffffffffffffffffffffffffffffffffffffffffffffffffffffffff19167bffffffffffffffffffffffffffffffffffffffffffffffffffffffff1916815260200190815260200160002060006101000a81548160ff02191690831515021790555050565b80600390805190602001906200039b9291906200095a565b5050565b600073ffffffffffffffffffffffffffffffffffffffff168473ffffffffffffffffffffffffffffffffffffffff16141562000412576040517f08c379a0000000000000000000000000000000000000000000000000000000008152600401620004099062000e73565b60405180910390fd5b600062000424620005ce60201b60201c565b90506200045d816000876200043f88620005d660201b60201c565b6200045088620005d660201b60201c565b876200063160201b60201c565b620004c7836001600087815260200190815260200160002060008873ffffffffffffffffffffffffffffffffffffffff1673ffffffffffffffffffffffffffffffffffffffff168152602001908152602001600020546200063960201b620014001790919060201c565b6001600086815260200190815260200160002060008773ffffffffffffffffffffffffffffffffffffffff1673ffffffffffffffffffffffffffffffffffffffff168152602001908152602001600020819055508473ffffffffffffffffffffffffffffffffffffffff16600073ffffffffffffffffffffffffffffffffffffffff168273ffffffffffffffffffffffffffffffffffffffff167fc3d58168c5ae7397731d063d5bbf3d657854427343f4c083240f7aacaa2d0f6287876040516200059492919062000e95565b60405180910390a4620005b3816000878787876200069160201b60201c565b5050505050565b600560008154809291906001019190505550565b600033905090565b60608060016040519080825280602002602001820160405280156200060a5781602001602082028038833980820191505090505b50905082816000815181106200061c57fe5b60200260200101818152505080915050919050565b505050505050565b60008082840190508381101562000687576040517f08c379a00000000000000000000000000000000000000000000000000000000081526004016200067e9062000e51565b60405180910390fd5b8091505092915050565b620006bd8473ffffffffffffffffffffffffffffffffffffffff166200094760201b62001be01760201c565b156200093f578373ffffffffffffffffffffffffffffffffffffffff1663f23a6e6187878686866040518663ffffffff1660e01b81526004016200070695949392919062000d63565b602060405180830381600087803b1580156200072157600080fd5b505af19250505080156200075557506040513d601f19601f8201168201806040525062000752919081019062000ad7565b60015b620008b35760006040519050600081526001156200082a5760443d10156200078157600090506200082a565b60046000803e60005160e01c6308c379a08114620007a45760009150506200082a565b60043d036004833e81513d602482011167ffffffffffffffff82111715620007d2576000925050506200082a565b808301805167ffffffffffffffff811115620007f65760009450505050506200082a565b8060208301013d860181111562000816576000955050505050506200082a565b601f19601f82011660405282955050505050505b8062000837575062000876565b806040517f08c379a00000000000000000000000000000000000000000000000000000000081526004016200086d919062000dc7565b60405180910390fd5b6040517f08c379a0000000000000000000000000000000000000000000000000000000008152600401620008aa9062000deb565b60405180910390fd5b63f23a6e6160e01b7bffffffffffffffffffffffffffffffffffffffffffffffffffffffff1916817bffffffffffffffffffffffffffffffffffffffffffffffffffffffff1916146200093d576040517f08c379a0000000000000000000000000000000000000000000000000000000008152600401620009349062000e0d565b60405180910390fd5b505b505050505050565b600080823b905060008111915050919050565b828054600181600116156101000203166002900490600052602060002090601f016020900481019282601f106200099d57805160ff1916838001178555620009ce565b82800160010185558215620009ce579182015b82811115620009cd578251825591602001919060010190620009b0565b5b509050620009dd919062000a98565b5090565b6040518060400160405280600073ffffffffffffffffffffffffffffffffffffffff168152602001606081525090565b828054600181600116156101000203166002900490600052602060002090601f016020900481019282601f1062000a5457805160ff191683800117855562000a85565b8280016001018555821562000a85579182015b8281111562000a8457825182559160200191906001019062000a67565b5b50905062000a94919062000a98565b5090565b62000abd91905b8082111562000ab957600081600090555060010162000a9f565b5090565b90565b60008151905062000ad18162000fab565b92915050565b60006020828403121562000aea57600080fd5b600062000afa8482850162000ac0565b91505092915050565b62000b0e8162000efa565b82525050565b600062000b218262000ec2565b62000b2d818562000ed8565b935062000b3f81856020860162000f64565b62000b4a8162000f9a565b840191505092915050565b600062000b628262000ecd565b62000b6e818562000ee9565b935062000b8081856020860162000f64565b62000b8b8162000f9a565b840191505092915050565b600062000ba560348362000ee9565b91507f455243313135353a207472616e7366657220746f206e6f6e204552433131353560008301527f526563656976657220696d706c656d656e7465720000000000000000000000006020830152604082019050919050565b600062000c0d60288362000ee9565b91507f455243313135353a204552433131353552656365697665722072656a6563746560008301527f6420746f6b656e730000000000000000000000000000000000000000000000006020830152604082019050919050565b600062000c75601c8362000ee9565b91507f4552433136353a20696e76616c696420696e74657266616365206964000000006000830152602082019050919050565b600062000cb7601b8362000ee9565b91507f536166654d6174683a206164646974696f6e206f766572666c6f7700000000006000830152602082019050919050565b600062000cf960218362000ee9565b91507f455243313135353a206d696e7420746f20746865207a65726f2061646472657360008301527f73000000000000000000000000000000000000000000000000000000000000006020830152604082019050919050565b62000d5d8162000f5a565b82525050565b600060a08201905062000d7a600083018862000b03565b62000d89602083018762000b03565b62000d98604083018662000d52565b62000da7606083018562000d52565b818103608083015262000dbb818462000b14565b90509695505050505050565b6000602082019050818103600083015262000de3818462000b55565b905092915050565b6000602082019050818103600083015262000e068162000b96565b9050919050565b6000602082019050818103600083015262000e288162000bfe565b9050919050565b6000602082019050818103600083015262000e4a8162000c66565b9050919050565b6000602082019050818103600083015262000e6c8162000ca8565b9050919050565b6000602082019050818103600083015262000e8e8162000cea565b9050919050565b600060408201905062000eac600083018562000d52565b62000ebb602083018462000d52565b9392505050565b600081519050919050565b600081519050919050565b600082825260208201905092915050565b600082825260208201905092915050565b600062000f078262000f3a565b9050919050565b60007fffffffff0000000000000000000000000000000000000000000000000000000082169050919050565b600073ffffffffffffffffffffffffffffffffffffffff82169050919050565b6000819050919050565b60005b8381101562000f8457808201518184015260208101905062000f67565b8381111562000f94576000848401525b50505050565b6000601f19601f8301169050919050565b62000fb68162000f0e565b811462000fc257600080fd5b50565b612f998062000fd56000396000f3fe608060405234801561001057600080fd5b50600436106100ce5760003560e01c806370d72d631161008c578063b6a46b3b11610066578063b6a46b3b14610225578063cd53d08e14610255578063e985e9c514610286578063f242432a146102b6576100ce565b806370d72d63146101cd57806395d89b41146101eb578063a22cb46514610209576100ce565b8062fdd58e146100d357806301ffc9a71461010357806306fdde03146101335780630e89341c146101515780632eb2c2d6146101815780634e1273f41461019d575b600080fd5b6100ed60048036036100e891908101906120eb565b6102d2565b6040516100fa9190612c63565b60405180910390f35b61011d60048036036101189190810190612193565b61039c565b60405161012a9190612aa4565b60405180910390f35b61013b610403565b6040516101489190612abf565b60405180910390f35b61016b6004803603610166919081019061222a565b6104a1565b6040516101789190612ae1565b60405180910390f35b61019b60048036036101969190810190611f61565b610545565b005b6101b760048036036101b29190810190612127565b610909565b6040516101c49190612a4b565b60405180910390f35b6101d56109f1565b6040516101e29190612a29565b60405180910390f35b6101f3610b99565b6040516102009190612abf565b60405180910390f35b610223600480360361021e91908101906120af565b610c37565b005b61023f600480360361023a91908101906121e5565b610db8565b60405161024c9190612c63565b60405180910390f35b61026f600480360361026a919081019061222a565b610ee8565b60405161027d9291906129f9565b60405180910390f35b6102a0600480360361029b9190810190611f25565b610fc4565b6040516102ad9190612aa4565b60405180910390f35b6102d060048036036102cb9190810190612020565b611058565b005b60008073ffffffffffffffffffffffffffffffffffffffff168373ffffffffffffffffffffffffffffffffffffffff161415610343576040517f08c379a000000000000000000000000000000000000000000000000000000000815260040161033a90612b43565b60405180910390fd5b6001600083815260200190815260200160002060008473ffffffffffffffffffffffffffffffffffffffff1673ffffffffffffffffffffffffffffffffffffffff16815260200190815260200160002054905092915050565b6000806000837bffffffffffffffffffffffffffffffffffffffffffffffffffffffff19167bffffffffffffffffffffffffffffffffffffffffffffffffffffffff1916815260200190815260200160002060009054906101000a900460ff169050919050565b60078054600181600116156101000203166002900480601f0160208091040260200160405190810160405280929190818152602001828054600181600116156101000203166002900480156104995780601f1061046e57610100808354040283529160200191610499565b820191906000526020600020905b81548152906001019060200180831161047c57829003601f168201915b505050505081565b606060038054600181600116156101000203166002900480601f0160208091040260200160405190810160405280929190818152602001828054600181600116156101000203166002900480156105395780601f1061050e57610100808354040283529160200191610539565b820191906000526020600020905b81548152906001019060200180831161051c57829003601f168201915b50505050509050919050565b8151835114610589576040517f08c379a000000000000000000000000000000000000000000000000000000000815260040161058090612c23565b60405180910390fd5b600073ffffffffffffffffffffffffffffffffffffffff168473ffffffffffffffffffffffffffffffffffffffff1614156105f9576040517f08c379a00000000000000000000000000000000000000000000000000000000081526004016105f090612ba3565b60405180910390fd5b61060161139b565b73ffffffffffffffffffffffffffffffffffffffff168573ffffffffffffffffffffffffffffffffffffffff16148061064757506106468561064161139b565b610fc4565b5b610686576040517f08c379a000000000000000000000000000000000000000000000000000000000815260040161067d90612bc3565b60405180910390fd5b600061069061139b565b90506106a08187878787876113a3565b60008090505b84518110156108745760008582815181106106bd57fe5b6020026020010151905060008583815181106106d557fe5b6020026020010151905061075c816040518060600160405280602a8152602001612f3a602a91396001600086815260200190815260200160002060008d73ffffffffffffffffffffffffffffffffffffffff1673ffffffffffffffffffffffffffffffffffffffff168152602001908152602001600020546113ab9092919063ffffffff16565b6001600084815260200190815260200160002060008b73ffffffffffffffffffffffffffffffffffffffff1673ffffffffffffffffffffffffffffffffffffffff16815260200190815260200160002081905550610813816001600085815260200190815260200160002060008b73ffffffffffffffffffffffffffffffffffffffff1673ffffffffffffffffffffffffffffffffffffffff1681526020019081526020016000205461140090919063ffffffff16565b6001600084815260200190815260200160002060008a73ffffffffffffffffffffffffffffffffffffffff1673ffffffffffffffffffffffffffffffffffffffff1681526020019081526020016000208190555050508060010190506106a6565b508473ffffffffffffffffffffffffffffffffffffffff168673ffffffffffffffffffffffffffffffffffffffff168273ffffffffffffffffffffffffffffffffffffffff167f4a39dc06d4c0dbc64b70af90fd698a233a518aa5d07e595d983b8c0526c8f7fb87876040516108eb929190612a6d565b60405180910390a4610901818787878787611455565b505050505050565b6060815183511461094f576040517f08c379a000000000000000000000000000000000000000000000000000000000815260040161094690612c03565b60405180910390fd5b606083516040519080825280602002602001820160405280156109815781602001602082028038833980820191505090505b50905060008090505b84518110156109e6576109c38582815181106109a257fe5b60200260200101518583815181106109b657fe5b60200260200101516102d2565b8282815181106109cf57fe5b60200260200101818152505080600101905061098a565b508091505092915050565b606080600554604051908082528060200260200182016040528015610a3057816020015b610a1d611bf3565b815260200190600190039081610a155790505b50905060008090505b600554811015610b91576040518060400160405280828152602001600660008481526020019081526020016000206040518060400160405290816000820160009054906101000a900473ffffffffffffffffffffffffffffffffffffffff1673ffffffffffffffffffffffffffffffffffffffff1673ffffffffffffffffffffffffffffffffffffffff168152602001600182018054600181600116156101000203166002900480601f016020809104026020016040519081016040528092919081815260200182805460018160011615610100020316600290048015610b615780601f10610b3657610100808354040283529160200191610b61565b820191906000526020600020905b815481529060010190602001808311610b4457829003601f168201915b505050505081525050815250828281518110610b7957fe5b60200260200101819052508080600101915050610a39565b508091505090565b60088054600181600116156101000203166002900480601f016020809104026020016040519081016040528092919081815260200182805460018160011615610100020316600290048015610c2f5780601f10610c0457610100808354040283529160200191610c2f565b820191906000526020600020905b815481529060010190602001808311610c1257829003601f168201915b505050505081565b8173ffffffffffffffffffffffffffffffffffffffff16610c5661139b565b73ffffffffffffffffffffffffffffffffffffffff161415610cad576040517f08c379a0000000000000000000000000000000000000000000000000000000008152600401610ca490612be3565b60405180910390fd5b8060026000610cba61139b565b73ffffffffffffffffffffffffffffffffffffffff1673ffffffffffffffffffffffffffffffffffffffff16815260200190815260200160002060008473ffffffffffffffffffffffffffffffffffffffff1673ffffffffffffffffffffffffffffffffffffffff16815260200190815260200160002060006101000a81548160ff0219169083151502179055508173ffffffffffffffffffffffffffffffffffffffff16610d6761139b565b73ffffffffffffffffffffffffffffffffffffffff167f17307eab39ab6107e8899845ad3d59bd9653f200f220920489ca2b5937696c3183604051610dac9190612aa4565b60405180910390a35050565b600080610dc36116e2565b9050610dcd6116ff565b610dd5611c13565b60405180604001604052803373ffffffffffffffffffffffffffffffffffffffff16815260200186868080601f016020809104026020016040519081016040528093929190818152602001838380828437600081840152601f19601f820116905080830192505050505050508152509050806006600084815260200190815260200160002060008201518160000160006101000a81548173ffffffffffffffffffffffffffffffffffffffff021916908373ffffffffffffffffffffffffffffffffffffffff1602179055506020820151816001019080519060200190610ebd929190611c43565b50905050610edd3383600160405180602001604052806000815250611713565b819250505092915050565b60066020528060005260406000206000915090508060000160009054906101000a900473ffffffffffffffffffffffffffffffffffffffff1690806001018054600181600116156101000203166002900480601f016020809104026020016040519081016040528092919081815260200182805460018160011615610100020316600290048015610fba5780601f10610f8f57610100808354040283529160200191610fba565b820191906000526020600020905b815481529060010190602001808311610f9d57829003601f168201915b5050505050905082565b6000600260008473ffffffffffffffffffffffffffffffffffffffff1673ffffffffffffffffffffffffffffffffffffffff16815260200190815260200160002060008373ffffffffffffffffffffffffffffffffffffffff1673ffffffffffffffffffffffffffffffffffffffff16815260200190815260200160002060009054906101000a900460ff16905092915050565b600073ffffffffffffffffffffffffffffffffffffffff168473ffffffffffffffffffffffffffffffffffffffff1614156110c8576040517f08c379a00000000000000000000000000000000000000000000000000000000081526004016110bf90612ba3565b60405180910390fd5b6110d061139b565b73ffffffffffffffffffffffffffffffffffffffff168573ffffffffffffffffffffffffffffffffffffffff16148061111657506111158561111061139b565b610fc4565b5b611155576040517f08c379a000000000000000000000000000000000000000000000000000000000815260040161114c90612b83565b60405180910390fd5b600061115f61139b565b905061117f818787611170886118fa565b611179886118fa565b876113a3565b6111fc836040518060600160405280602a8152602001612f3a602a91396001600088815260200190815260200160002060008a73ffffffffffffffffffffffffffffffffffffffff1673ffffffffffffffffffffffffffffffffffffffff168152602001908152602001600020546113ab9092919063ffffffff16565b6001600086815260200190815260200160002060008873ffffffffffffffffffffffffffffffffffffffff1673ffffffffffffffffffffffffffffffffffffffff168152602001908152602001600020819055506112b3836001600087815260200190815260200160002060008873ffffffffffffffffffffffffffffffffffffffff1673ffffffffffffffffffffffffffffffffffffffff1681526020019081526020016000205461140090919063ffffffff16565b6001600086815260200190815260200160002060008773ffffffffffffffffffffffffffffffffffffffff1673ffffffffffffffffffffffffffffffffffffffff168152602001908152602001600020819055508473ffffffffffffffffffffffffffffffffffffffff168673ffffffffffffffffffffffffffffffffffffffff168273ffffffffffffffffffffffffffffffffffffffff167fc3d58168c5ae7397731d063d5bbf3d657854427343f4c083240f7aacaa2d0f62878760405161137d929190612c7e565b60405180910390a4611393818787878787611953565b505050505050565b600033905090565b505050505050565b60008383111582906113f3576040517f08c379a00000000000000000000000000000000000000000000000000000000081526004016113ea9190612ae1565b60405180910390fd5b5082840390509392505050565b60008082840190508381101561144b576040517f08c379a000000000000000000000000000000000000000000000000000000000815260040161144290612b63565b60405180910390fd5b8091505092915050565b6114748473ffffffffffffffffffffffffffffffffffffffff16611be0565b156116da578373ffffffffffffffffffffffffffffffffffffffff1663bc197c8187878686866040518663ffffffff1660e01b81526004016114ba959493929190612937565b602060405180830381600087803b1580156114d457600080fd5b505af192505050801561150557506040513d601f19601f8201168201806040525061150291908101906121bc565b60015b6116515760006040519050600081526001156115ce5760443d101561152d57600090506115ce565b60046000803e60005160e01c6308c379a0811461154e5760009150506115ce565b60043d036004833e81513d602482011167ffffffffffffffff8211171561157a576000925050506115ce565b808301805167ffffffffffffffff81111561159c5760009450505050506115ce565b8060208301013d86018111156115ba576000955050505050506115ce565b601f19601f82011660405282955050505050505b806115d95750611616565b806040517f08c379a000000000000000000000000000000000000000000000000000000000815260040161160d9190612ae1565b60405180910390fd5b6040517f08c379a000000000000000000000000000000000000000000000000000000000815260040161164890612b03565b60405180910390fd5b63bc197c8160e01b7bffffffffffffffffffffffffffffffffffffffffffffffffffffffff1916817bffffffffffffffffffffffffffffffffffffffffffffffffffffffff1916146116d8576040517f08c379a00000000000000000000000000000000000000000000000000000000081526004016116cf90612b23565b60405180910390fd5b505b505050505050565b60006116fa600160055461140090919063ffffffff16565b905090565b600560008154809291906001019190505550565b600073ffffffffffffffffffffffffffffffffffffffff168473ffffffffffffffffffffffffffffffffffffffff161415611783576040517f08c379a000000000000000000000000000000000000000000000000000000000815260040161177a90612c43565b60405180910390fd5b600061178d61139b565b90506117ae8160008761179f886118fa565b6117a8886118fa565b876113a3565b611811836001600087815260200190815260200160002060008873ffffffffffffffffffffffffffffffffffffffff1673ffffffffffffffffffffffffffffffffffffffff1681526020019081526020016000205461140090919063ffffffff16565b6001600086815260200190815260200160002060008773ffffffffffffffffffffffffffffffffffffffff1673ffffffffffffffffffffffffffffffffffffffff168152602001908152602001600020819055508473ffffffffffffffffffffffffffffffffffffffff16600073ffffffffffffffffffffffffffffffffffffffff168273ffffffffffffffffffffffffffffffffffffffff167fc3d58168c5ae7397731d063d5bbf3d657854427343f4c083240f7aacaa2d0f6287876040516118dc929190612c7e565b60405180910390a46118f381600087878787611953565b5050505050565b606080600160405190808252806020026020018201604052801561192d5781602001602082028038833980820191505090505b509050828160008151811061193e57fe5b60200260200101818152505080915050919050565b6119728473ffffffffffffffffffffffffffffffffffffffff16611be0565b15611bd8578373ffffffffffffffffffffffffffffffffffffffff1663f23a6e6187878686866040518663ffffffff1660e01b81526004016119b895949392919061299f565b602060405180830381600087803b1580156119d257600080fd5b505af1925050508015611a0357506040513d601f19601f82011682018060405250611a0091908101906121bc565b60015b611b4f576000604051905060008152600115611acc5760443d1015611a2b5760009050611acc565b60046000803e60005160e01c6308c379a08114611a4c576000915050611acc565b60043d036004833e81513d602482011167ffffffffffffffff82111715611a7857600092505050611acc565b808301805167ffffffffffffffff811115611a9a576000945050505050611acc565b8060208301013d8601811115611ab857600095505050505050611acc565b601f19601f82011660405282955050505050505b80611ad75750611b14565b806040517f08c379a0000000000000000000000000000000000000000000000000000000008152600401611b0b9190612ae1565b60405180910390fd5b6040517f08c379a0000000000000000000000000000000000000000000000000000000008152600401611b4690612b03565b60405180910390fd5b63f23a6e6160e01b7bffffffffffffffffffffffffffffffffffffffffffffffffffffffff1916817bffffffffffffffffffffffffffffffffffffffffffffffffffffffff191614611bd6576040517f08c379a0000000000000000000000000000000000000000000000000000000008152600401611bcd90612b23565b60405180910390fd5b505b505050505050565b600080823b905060008111915050919050565b604051806040016040528060008152602001611c0d611cc3565b81525090565b6040518060400160405280600073ffffffffffffffffffffffffffffffffffffffff168152602001606081525090565b828054600181600116156101000203166002900490600052602060002090601f016020900481019282601f10611c8457805160ff1916838001178555611cb2565b82800160010185558215611cb2579182015b82811115611cb1578251825591602001919060010190611c96565b5b509050611cbf9190611cf3565b5090565b6040518060400160405280600073ffffffffffffffffffffffffffffffffffffffff168152602001606081525090565b611d1591905b80821115611d11576000816000905550600101611cf9565b5090565b90565b600081359050611d2781612edd565b92915050565b600082601f830112611d3e57600080fd5b8135611d51611d4c82612cd4565b612ca7565b91508181835260208401935060208101905083856020840282011115611d7657600080fd5b60005b83811015611da65781611d8c8882611d18565b845260208401935060208301925050600181019050611d79565b5050505092915050565b600082601f830112611dc157600080fd5b8135611dd4611dcf82612cfc565b612ca7565b91508181835260208401935060208101905083856020840282011115611df957600080fd5b60005b83811015611e295781611e0f8882611f10565b845260208401935060208301925050600181019050611dfc565b5050505092915050565b600081359050611e4281612ef4565b92915050565b600081359050611e5781612f0b565b92915050565b600081519050611e6c81612f0b565b92915050565b600082601f830112611e8357600080fd5b8135611e96611e9182612d24565b612ca7565b91508082526020830160208301858383011115611eb257600080fd5b611ebd838284612e8a565b50505092915050565b60008083601f840112611ed857600080fd5b8235905067ffffffffffffffff811115611ef157600080fd5b602083019150836001820283011115611f0957600080fd5b9250929050565b600081359050611f1f81612f22565b92915050565b60008060408385031215611f3857600080fd5b6000611f4685828601611d18565b9250506020611f5785828601611d18565b9150509250929050565b600080600080600060a08688031215611f7957600080fd5b6000611f8788828901611d18565b9550506020611f9888828901611d18565b945050604086013567ffffffffffffffff811115611fb557600080fd5b611fc188828901611db0565b935050606086013567ffffffffffffffff811115611fde57600080fd5b611fea88828901611db0565b925050608086013567ffffffffffffffff81111561200757600080fd5b61201388828901611e72565b9150509295509295909350565b600080600080600060a0868803121561203857600080fd5b600061204688828901611d18565b955050602061205788828901611d18565b945050604061206888828901611f10565b935050606061207988828901611f10565b925050608086013567ffffffffffffffff81111561209657600080fd5b6120a288828901611e72565b9150509295509295909350565b600080604083850312156120c257600080fd5b60006120d085828601611d18565b92505060206120e185828601611e33565b9150509250929050565b600080604083850312156120fe57600080fd5b600061210c85828601611d18565b925050602061211d85828601611f10565b9150509250929050565b6000806040838503121561213a57600080fd5b600083013567ffffffffffffffff81111561215457600080fd5b61216085828601611d2d565b925050602083013567ffffffffffffffff81111561217d57600080fd5b61218985828601611db0565b9150509250929050565b6000602082840312156121a557600080fd5b60006121b384828501611e48565b91505092915050565b6000602082840312156121ce57600080fd5b60006121dc84828501611e5d565b91505092915050565b600080602083850312156121f857600080fd5b600083013567ffffffffffffffff81111561221257600080fd5b61221e85828601611ec6565b92509250509250929050565b60006020828403121561223c57600080fd5b600061224a84828501611f10565b91505092915050565b600061225f83836128dc565b905092915050565b60006122738383612919565b60208301905092915050565b61228881612e16565b82525050565b61229781612e16565b82525050565b60006122a882612d70565b6122b28185612dc1565b9350836020820285016122c485612d50565b8060005b8581101561230057848403895281516122e18582612253565b94506122ec83612da7565b925060208a019950506001810190506122c8565b50829750879550505050505092915050565b600061231d82612d7b565b6123278185612dd2565b935061233283612d60565b8060005b8381101561236357815161234a8882612267565b975061235583612db4565b925050600181019050612336565b5085935050505092915050565b61237981612e28565b82525050565b600061238a82612d86565b6123948185612de3565b93506123a4818560208601612e99565b6123ad81612ecc565b840191505092915050565b60006123c382612d9c565b6123cd8185612e05565b93506123dd818560208601612e99565b6123e681612ecc565b840191505092915050565b60006123fc82612d91565b6124068185612df4565b9350612416818560208601612e99565b61241f81612ecc565b840191505092915050565b600061243582612d91565b61243f8185612e05565b935061244f818560208601612e99565b61245881612ecc565b840191505092915050565b6000612470603483612e05565b91507f455243313135353a207472616e7366657220746f206e6f6e204552433131353560008301527f526563656976657220696d706c656d656e7465720000000000000000000000006020830152604082019050919050565b60006124d6602883612e05565b91507f455243313135353a204552433131353552656365697665722072656a6563746560008301527f6420746f6b656e730000000000000000000000000000000000000000000000006020830152604082019050919050565b600061253c602b83612e05565b91507f455243313135353a2062616c616e636520717565727920666f7220746865207a60008301527f65726f20616464726573730000000000000000000000000000000000000000006020830152604082019050919050565b60006125a2601b83612e05565b91507f536166654d6174683a206164646974696f6e206f766572666c6f7700000000006000830152602082019050919050565b60006125e2602983612e05565b91507f455243313135353a2063616c6c6572206973206e6f74206f776e6572206e6f7260008301527f20617070726f76656400000000000000000000000000000000000000000000006020830152604082019050919050565b6000612648602583612e05565b91507f455243313135353a207472616e7366657220746f20746865207a65726f20616460008301527f64726573730000000000000000000000000000000000000000000000000000006020830152604082019050919050565b60006126ae603283612e05565b91507f455243313135353a207472616e736665722063616c6c6572206973206e6f742060008301527f6f776e6572206e6f7220617070726f76656400000000000000000000000000006020830152604082019050919050565b6000612714602983612e05565b91507f455243313135353a2073657474696e6720617070726f76616c2073746174757360008301527f20666f722073656c6600000000000000000000000000000000000000000000006020830152604082019050919050565b600061277a602983612e05565b91507f455243313135353a206163636f756e747320616e6420696473206c656e67746860008301527f206d69736d6174636800000000000000000000000000000000000000000000006020830152604082019050919050565b60006127e0602883612e05565b91507f455243313135353a2069647320616e6420616d6f756e7473206c656e6774682060008301527f6d69736d617463680000000000000000000000000000000000000000000000006020830152604082019050919050565b6000612846602183612e05565b91507f455243313135353a206d696e7420746f20746865207a65726f2061646472657360008301527f73000000000000000000000000000000000000000000000000000000000000006020830152604082019050919050565b60006040830160008301516128b7600086018261227f565b50602083015184820360208601526128cf82826123f1565b9150508091505092915050565b60006040830160008301516128f46000860182612919565b506020830151848203602086015261290c828261289f565b9150508091505092915050565b61292281612e80565b82525050565b61293181612e80565b82525050565b600060a08201905061294c600083018861228e565b612959602083018761228e565b818103604083015261296b8186612312565b9050818103606083015261297f8185612312565b90508181036080830152612993818461237f565b90509695505050505050565b600060a0820190506129b4600083018861228e565b6129c1602083018761228e565b6129ce6040830186612928565b6129db6060830185612928565b81810360808301526129ed818461237f565b90509695505050505050565b6000604082019050612a0e600083018561228e565b8181036020830152612a20818461242a565b90509392505050565b60006020820190508181036000830152612a43818461229d565b905092915050565b60006020820190508181036000830152612a658184612312565b905092915050565b60006040820190508181036000830152612a878185612312565b90508181036020830152612a9b8184612312565b90509392505050565b6000602082019050612ab96000830184612370565b92915050565b60006020820190508181036000830152612ad9818461242a565b905092915050565b60006020820190508181036000830152612afb81846123b8565b905092915050565b60006020820190508181036000830152612b1c81612463565b9050919050565b60006020820190508181036000830152612b3c816124c9565b9050919050565b60006020820190508181036000830152612b5c8161252f565b9050919050565b60006020820190508181036000830152612b7c81612595565b9050919050565b60006020820190508181036000830152612b9c816125d5565b9050919050565b60006020820190508181036000830152612bbc8161263b565b9050919050565b60006020820190508181036000830152612bdc816126a1565b9050919050565b60006020820190508181036000830152612bfc81612707565b9050919050565b60006020820190508181036000830152612c1c8161276d565b9050919050565b60006020820190508181036000830152612c3c816127d3565b9050919050565b60006020820190508181036000830152612c5c81612839565b9050919050565b6000602082019050612c786000830184612928565b92915050565b6000604082019050612c936000830185612928565b612ca06020830184612928565b9392505050565b6000604051905081810181811067ffffffffffffffff82111715612cca57600080fd5b8060405250919050565b600067ffffffffffffffff821115612ceb57600080fd5b602082029050602081019050919050565b600067ffffffffffffffff821115612d1357600080fd5b602082029050602081019050919050565b600067ffffffffffffffff821115612d3b57600080fd5b601f19601f8301169050602081019050919050565b6000819050602082019050919050565b6000819050602082019050919050565b600081519050919050565b600081519050919050565b600081519050919050565b600081519050919050565b600081519050919050565b6000602082019050919050565b6000602082019050919050565b600082825260208201905092915050565b600082825260208201905092915050565b600082825260208201905092915050565b600082825260208201905092915050565b600082825260208201905092915050565b6000612e2182612e60565b9050919050565b60008115159050919050565b60007fffffffff0000000000000000000000000000000000000000000000000000000082169050919050565b600073ffffffffffffffffffffffffffffffffffffffff82169050919050565b6000819050919050565b82818337600083830152505050565b60005b83811015612eb7578082015181840152602081019050612e9c565b83811115612ec6576000848401525b50505050565b6000601f19601f8301169050919050565b612ee681612e16565b8114612ef157600080fd5b50565b612efd81612e28565b8114612f0857600080fd5b50565b612f1481612e34565b8114612f1f57600080fd5b50565b612f2b81612e80565b8114612f3657600080fd5b5056fe455243313135353a20696e73756666696369656e742062616c616e636520666f72207472616e73666572a2646970667358221220a8af5eb4c7d4c3972a8a96efb3911ca0aa3afdd260c02d51d90b31c058c5755a64736f6c6343000602003368747470733a2f2f6769746875622e636f6d2f6d61747472756464792f444150502f626c6f622f6d61737465722f6974656d2f7b69647d2e6a736f6e",
  "source": "pragma solidity 0.6.2;\npragma experimental ABIEncoderV2;\n\nimport \"@openzeppelin/contracts/token/ERC1155/ERC1155.sol\";\n\ncontract PixelToken is ERC1155 {\n\n    struct Pixel {\n        uint256 id;\n        Meta meta;\n    }\n\n    struct Meta {\n        address account;\n        string name;\n    }\n\n    address proxyRegistryAddress;\n    uint256 private _currentTokenID = 0;\n    mapping (uint256 => Meta) public creators;\n\n    // Contract name\n    string public name;\n    // Contract symbol\n    string public symbol;\n\n    modifier creatorOnly(uint256 _id) {\n        require(creators[_id].account == msg.sender, \"Creator Only\");\n        _;\n    }\n\n    constructor() public ERC1155(\"https://github.com/mattruddy/DAPP/blob/master/item/{id}.json\") {\n        name = \"PixelToken\";\n        symbol = \"PXT\";\n        proxyRegistryAddress = msg.sender;\n\n        // create 100 pixel items\n        for (uint i=0; i<10; i++) {\n            _mint(msg.sender, i, 1, \"\");\n            Meta memory meta = Meta({\n                account: msg.sender,\n                name: \"Test Name\"\n            });\n            creators[i] = meta;\n            _incrementTokenTypeId();\n        }\n    }\n\n    function create(string calldata itemName) external returns(uint256) {\n        uint256 _id = _getNextTokenID();\n        _incrementTokenTypeId();\n\n        Meta memory meta = Meta({\n            account: msg.sender,\n            name: itemName\n        });\n        creators[_id] = meta;\n\n        _mint(msg.sender, _id, 1, \"\");\n        return _id;\n    }\n\n    function getAllPixels() public view returns(Pixel[] memory) {\n        Pixel[] memory pixels = new Pixel[](_currentTokenID);\n        for(uint i =0; i < _currentTokenID; i++) {\n            pixels[i] = Pixel({\n                id: i,\n                meta: creators[i]\n            });\n        }\n        return pixels;\n    }\n\n    function _getNextTokenID() private view returns (uint256) {\n        return _currentTokenID.add(1);\n    }\n\n    function _incrementTokenTypeId() private  {\n        _currentTokenID++;\n    }\n}",
  "sourcePath": "/Users/matthewruddy/Desktop/Apps/DAPP/truffle/contracts/PixelToken.sol",
  "compiler": {
    "name": "solc",
    "version": "0.6.2+commit.bacdbe57.Emscripten.clang"
  },
  "schemaVersion": "3.2.5",
  "updatedAt": "2021-02-16T18:34:37.191Z",
  "networkType": "ethereum",
  "devdoc": {
    "methods": {
      "balanceOf(address,uint256)": {
        "details": "See {IERC1155-balanceOf}.     * Requirements:     * - `account` cannot be the zero address."
      },
      "balanceOfBatch(address[],uint256[])": {
        "details": "See {IERC1155-balanceOfBatch}.     * Requirements:     * - `accounts` and `ids` must have the same length."
      },
      "isApprovedForAll(address,address)": {
        "details": "See {IERC1155-isApprovedForAll}."
      },
      "safeBatchTransferFrom(address,address,uint256[],uint256[],bytes)": {
        "details": "See {IERC1155-safeBatchTransferFrom}."
      },
      "safeTransferFrom(address,address,uint256,uint256,bytes)": {
        "details": "See {IERC1155-safeTransferFrom}."
      },
      "setApprovalForAll(address,bool)": {
        "details": "See {IERC1155-setApprovalForAll}."
      },
      "supportsInterface(bytes4)": {
        "details": "See {IERC165-supportsInterface}.     * Time complexity O(1), guaranteed to always use less than 30 000 gas."
      },
      "uri(uint256)": {
        "details": "See {IERC1155MetadataURI-uri}.     * This implementation returns the same URI for *all* token types. It relies on the token type ID substitution mechanism https://eips.ethereum.org/EIPS/eip-1155#metadata[defined in the EIP].     * Clients calling this function must replace the `\\{id\\}` substring with the actual token type ID."
      }
    }
  },
  "userdoc": {
    "methods": {}
  }
}